{
	"data": {
		"bytecode": {
			"linkReferences": {},
			"object": "608060405234801561001057600080fd5b5061001a3361001f565b61006f565b600080546001600160a01b038381166001600160a01b0319831681178455604051919092169283917f8be0079c531659141344cd1fd0a4f28419497f9722a3daafe3b4186f6b6457e09190a35050565b61214a8061007e6000396000f3fe608060405234801561001057600080fd5b50600436106100625760003560e01c806324d65ed8146100675780633b7d09461461007c578063715018a61461008f5780638da5cb5b14610097578063a4063dbc146100b7578063f2fde38b146100ea575b600080fd5b61007a6100753660046106a1565b6100fd565b005b61007a61008a366004610713565b6103c2565b61007a610495565b6000546040516001600160a01b0390911681526020015b60405180910390f35b6100da6100c5366004610713565b60016020526000908152604090205460ff1681565b60405190151581526020016100ae565b61007a6100f8366004610713565b6104cb565b6000546001600160a01b031633146101305760405162461bcd60e51b815260040161012790610737565b60405180910390fd5b6000876001600160a01b03166318160ddd6040518163ffffffff1660e01b8152600401602060405180830381865afa158015610170573d6000803e3d6000fd5b505050506040513d601f19601f82011682018060405250810190610194919061076c565b101561019f57600080fd5b6000866001600160a01b03166318160ddd6040518163ffffffff1660e01b8152600401602060405180830381865afa1580156101df573d6000803e3d6000fd5b505050506040513d601f19601f82011682018060405250810190610203919061076c565b101561020e57600080fd5b856001600160a01b0316876001600160a01b031614156102705760405162461bcd60e51b815260206004820152601860248201527f546f6b656e73206d75737420626520646966666572656e7400000000000000006044820152606401610127565b6000604051806020016102829061067f565b601f1982820381018352601f9091011660408190526bffffffffffffffffffffffff1960608b811b821660208401528a901b166034820152604881018790529091506000906068016040516020818303038152906040528051906020012090506000818351602085016000f56040516320e9410760e21b81526001600160a01b038c811660048301528b81166024830152604482018b9052606482018a90526084820189905260a4820188905286811660c4830152919250908216906383a5041c9060e401600060405180830381600087803b15801561036157600080fd5b505af1158015610375573d6000803e3d6000fd5b5050505061038281610566565b6040516001600160a01b038216907fcfb199724e80ef87a82c051c6bcbe15ca80dbd143a1a7ca4f90be72f4fd6bf8790600090a250505050505050505050565b6000546001600160a01b031633146103ec5760405162461bcd60e51b815260040161012790610737565b6001600160a01b03811660009081526001602052604090205460ff1661044c5760405162461bcd60e51b815260206004820152601560248201527442464c593a20504f4f4c5f4e4f545f45584953545360581b6044820152606401610127565b6001600160a01b038116600081815260016020526040808220805460ff19169055517f0719c8bc6522957e7735717af2894124fbc9096cf04b5bfaabcff515779087659190a250565b6000546001600160a01b031633146104bf5760405162461bcd60e51b815260040161012790610737565b6104c9600061062f565b565b6000546001600160a01b031633146104f55760405162461bcd60e51b815260040161012790610737565b6001600160a01b03811661055a5760405162461bcd60e51b815260206004820152602660248201527f4f776e61626c653a206e6577206f776e657220697320746865207a65726f206160448201526564647265737360d01b6064820152608401610127565b6105638161062f565b50565b6001600160a01b0381166105b15760405162461bcd60e51b81526020600482015260126024820152712123262c9d1024a72b20a624a22fa0a2222960711b6044820152606401610127565b6001600160a01b03811660009081526001602052604090205460ff166105f8576001600160a01b0381166000908152600160208190526040909120805460ff191690911790555b6040516001600160a01b038216907f8c82d670bc9247c2cfb6964089bc9cff0255f9caade6fbc74a13368083e5546690600090a250565b600080546001600160a01b038381166001600160a01b0319831681178455604051919092169283917f8be0079c531659141344cd1fd0a4f28419497f9722a3daafe3b4186f6b6457e09190a35050565b61198f8061078683390190565b6001600160a01b038116811461056357600080fd5b600080600080600080600060e0888a0312156106bc57600080fd5b87356106c78161068c565b965060208801356106d78161068c565b955060408801359450606088013593506080880135925060a0880135915060c08801356107038161068c565b8091505092959891949750929550565b60006020828403121561072557600080fd5b81356107308161068c565b9392505050565b6020808252818101527f4f776e61626c653a2063616c6c6572206973206e6f7420746865206f776e6572604082015260600190565b60006020828403121561077e57600080fd5b505191905056fe608060405234801561001057600080fd5b5061001a33610035565b60018055600280546001600160a01b03191633179055610085565b600080546001600160a01b038381166001600160a01b0319831681178455604051919092169283917f8be0079c531659141344cd1fd0a4f28419497f9722a3daafe3b4186f6b6457e09190a35050565b6118fb806100946000396000f3fe608060405234801561001057600080fd5b50600436106101a95760003560e01c80638da5cb5b116100f9578063bd61719111610097578063db2e21bc11610071578063db2e21bc14610369578063f2fde38b14610371578063f40f0f5214610384578063f7c618c11461039757600080fd5b8063bd6171911461033a578063cc7a262e1461034d578063ccd34cd51461036057600080fd5b80639513997f116100d35780639513997f146102f8578063a0b409051461030b578063a9f8d1811461031e578063b6b55f251461032757600080fd5b80638da5cb5b146102b65780638f662915146102db57806392e8990e146102e457600080fd5b806343b0215f11610166578063715018a611610140578063715018a61461028a57806380dc06721461029257806383a5041c1461029a5780638ae39cac146102ad57600080fd5b806343b0215f1461023c57806348cd4cb11461027857806366fe9f8a1461028157600080fd5b806301f8a976146101ae5780631aed6553146101c35780632e1a7d4d146101df5780633279beab146101f2578063392e53cd146102055780633f138d4b14610229575b600080fd5b6101c16101bc3660046114d8565b6103aa565b005b6101cc60045481565b6040519081526020015b60405180910390f35b6101c16101ed3660046114d8565b61045c565b6101c16102003660046114d8565b6105cf565b60025461021990600160a81b900460ff1681565b60405190151581526020016101d6565b6101c1610237366004611506565b610613565b61026361024a366004611532565b600c602052600090815260409020805460019091015482565b604080519283526020830191909152016101d6565b6101cc60055481565b6101cc60075481565b6101c1610746565b6101c161077c565b6101c16102a836600461154f565b6107ac565b6101cc60085481565b6000546001600160a01b03165b6040516001600160a01b0390911681526020016101d6565b6101cc60035481565b60025461021990600160a01b900460ff1681565b6101c16103063660046115c1565b6109af565b6101c16103193660046115f1565b610b30565b6101cc60065481565b6101c16103353660046114d8565b610c52565b6002546102c3906001600160a01b031681565b600b546102c3906001600160a01b031681565b6101cc60095481565b6101c1610dd9565b6101c161037f366004611532565b610e70565b6101cc610392366004611532565b610f08565b600a546102c3906001600160a01b031681565b6000546001600160a01b031633146103dd5760405162461bcd60e51b81526004016103d49061160f565b60405180910390fd5b60055443106104215760405162461bcd60e51b815260206004820152601060248201526f141bdbdb081a185cc81cdd185c9d195960821b60448201526064016103d4565b60088190556040518181527f0c4d677eef92893ac7ec52faf8140fc6c851ab4736302b4f3a89dfb20696a0df9060200160405180910390a150565b6002600154141561047f5760405162461bcd60e51b81526004016103d490611644565b6002600155336000908152600c6020526040902080548211156104ee5760405162461bcd60e51b815260206004820152602160248201527f42464c593a20416d6f756e7420746f20776974686472617720746f6f206869676044820152600d60fb1b60648201526084016103d4565b6104f6611053565b600061052b826001015461052560095461051f600354876000015461112a90919063ffffffff16565b9061113f565b9061114b565b9050821561055857815461053f908461114b565b8255600b54610558906001600160a01b03163385611157565b801561057557600a54610575906001600160a01b03163383611157565b600954600354835461058c929161051f919061112a565b600183015560405183815233907f884edad9ce6fa2440d8a54cc123490eb96d2768479d49ff9c7366125a94243649060200160405180910390a250506001805550565b6000546001600160a01b031633146105f95760405162461bcd60e51b81526004016103d49061160f565b600a54610610906001600160a01b03163383611157565b50565b6000546001600160a01b0316331461063d5760405162461bcd60e51b81526004016103d49061160f565b600b546001600160a01b03838116911614156106945760405162461bcd60e51b815260206004820152601660248201527521b0b73737ba1031329039ba30b5b2b2103a37b5b2b760511b60448201526064016103d4565b600a546001600160a01b03838116911614156106eb5760405162461bcd60e51b815260206004820152601660248201527521b0b73737ba103132903932bbb0b932103a37b5b2b760511b60448201526064016103d4565b6106ff6001600160a01b0383163383611157565b604080516001600160a01b0384168152602081018390527f74545154aac348a3eac92596bd1971957ca94795f4e954ec5f613b55fab7812991015b60405180910390a15050565b6000546001600160a01b031633146107705760405162461bcd60e51b81526004016103d49061160f565b61077a60006111bf565b565b6000546001600160a01b031633146107a65760405162461bcd60e51b81526004016103d49061160f565b43600455565b600254600160a81b900460ff16156107fb5760405162461bcd60e51b8152602060048201526012602482015271109193164e881053149150511657d253925560721b60448201526064016103d4565b6002546001600160a01b031633146108495760405162461bcd60e51b815260206004820152601160248201527042464c593a204e4f545f464143544f525960781b60448201526064016103d4565b6002805460ff60a81b1916600160a81b179055600b80546001600160a01b03808a166001600160a01b031992831617909255600a80549289169290911691909117905560088590556005849055600483905581156108ba576002805460ff60a01b1916600160a01b17905560078290555b600a546040805163313ce56760e01b815290516000926001600160a01b03169163313ce5679160048083019260209291908290030181865afa158015610904573d6000803e3d6000fd5b505050506040513d601f19601f82011682018060405250810190610928919061167b565b60ff169050601e811061097d5760405162461bcd60e51b815260206004820152601c60248201527f42464c593a204d75737420626520696e666572696f7220746f2033300000000060448201526064016103d4565b610988601e8261114b565b61099390600a611798565b6009556005546006556109a582610e70565b5050505050505050565b6000546001600160a01b031633146109d95760405162461bcd60e51b81526004016103d49061160f565b6005544310610a1d5760405162461bcd60e51b815260206004820152601060248201526f141bdbdb081a185cc81cdd185c9d195960821b60448201526064016103d4565b808210610a835760405162461bcd60e51b815260206004820152602e60248201527f4e6577207374617274426c6f636b206d757374206265206c6f7765722074686160448201526d6e206e657720656e64426c6f636b60901b60648201526084016103d4565b814310610aeb5760405162461bcd60e51b815260206004820152603060248201527f4e6577207374617274426c6f636b206d7573742062652068696768657220746860448201526f616e2063757272656e7420626c6f636b60801b60648201526084016103d4565b60058290556004819055600682905560408051838152602081018390527f7cd0ab87d19036f3dfadadb232c78aa4879dda3f0c994a9d637532410ee2ce06910161073a565b6000546001600160a01b03163314610b5a5760405162461bcd60e51b81526004016103d49061160f565b600254600160a01b900460ff16610ba15760405162461bcd60e51b815260206004820152600b60248201526a135d5cdd081899481cd95d60aa1b60448201526064016103d4565b8115610c02576007548111610bf85760405162461bcd60e51b815260206004820152601860248201527f4e6577206c696d6974206d75737420626520686967686572000000000000000060448201526064016103d4565b6007819055610c1f565b6002805460ff60a01b1916600160a01b8415150217905560006007555b7f241f67ee5f41b7a5cabf911367329be7215900f602ebfc47f89dce2a6bcd847c60075460405161073a91815260200190565b60026001541415610c755760405162461bcd60e51b81526004016103d490611644565b60026001819055336000908152600c602052604090209054600160a01b900460ff1615610cfa576007548154610cac90849061120f565b1115610cfa5760405162461bcd60e51b815260206004820152601d60248201527f42464c593a205573657220616d6f756e742061626f7665206c696d697400000060448201526064016103d4565b610d02611053565b805415610d53576000610d32826001015461052560095461051f600354876000015461112a90919063ffffffff16565b90508015610d5157600a54610d51906001600160a01b03163383611157565b505b8115610d7f578054610d65908361120f565b8155600b54610d7f906001600160a01b031633308561121b565b6009546003548254610d96929161051f919061112a565b600182015560405182815233907fe1fffcc4923d04b559f4d29a8bfc6cda04eb5b0d3c460751c2402c5c5cc9109c906020015b60405180910390a2505060018055565b60026001541415610dfc5760405162461bcd60e51b81526004016103d490611644565b60026001908155336000908152600c60205260408120805482825592810191909155908015610e3c57600b54610e3c906001600160a01b03163383611157565b815460405190815233907f5fafa99d0643513820be26656b45130b01e1c03062e1266bf36f88cbd3bd969590602001610dc9565b6000546001600160a01b03163314610e9a5760405162461bcd60e51b81526004016103d49061160f565b6001600160a01b038116610eff5760405162461bcd60e51b815260206004820152602660248201527f4f776e61626c653a206e6577206f776e657220697320746865207a65726f206160448201526564647265737360d01b60648201526084016103d4565b610610816111bf565b6001600160a01b038181166000908152600c6020526040808220600b5491516370a0823160e01b8152306004820152929390928492909116906370a0823190602401602060405180830381865afa158015610f67573d6000803e3d6000fd5b505050506040513d601f19601f82011682018060405250810190610f8b91906117a4565b905060065443118015610f9d57508015155b15611024576000610fb060065443611259565b90506000610fc96008548361112a90919063ffffffff16565b90506000610ff2610fe98561051f6009548661112a90919063ffffffff16565b6003549061120f565b9050611019856001015461052560095461051f858a6000015461112a90919063ffffffff16565b979650505050505050565b61104b826001015461052560095461051f600354876000015461112a90919063ffffffff16565b949350505050565b600654431161105e57565b600b546040516370a0823160e01b81523060048201526000916001600160a01b0316906370a0823190602401602060405180830381865afa1580156110a7573d6000803e3d6000fd5b505050506040513d601f19601f820116820180604052508101906110cb91906117a4565b9050806110d9575043600655565b60006110e760065443611259565b905060006111006008548361112a90919063ffffffff16565b905061111e610fe98461051f6009548561112a90919063ffffffff16565b60035550504360065550565b600061113682846117bd565b90505b92915050565b600061113682846117dc565b600061113682846117fe565b6040516001600160a01b0383166024820152604481018290526111ba90849063a9059cbb60e01b906064015b60408051601f198184030181529190526020810180516001600160e01b03166001600160e01b031990931692909217909152611293565b505050565b600080546001600160a01b038381166001600160a01b0319831681178455604051919092169283917f8be0079c531659141344cd1fd0a4f28419497f9722a3daafe3b4186f6b6457e09190a35050565b60006111368284611815565b6040516001600160a01b03808516602483015283166044820152606481018290526112539085906323b872dd60e01b90608401611183565b50505050565b600060045482116112755761126e828461114b565b9050611139565b600454831061128657506000611139565b60045461126e908461114b565b60006112e8826040518060400160405280602081526020017f5361666542455032303a206c6f772d6c6576656c2063616c6c206661696c6564815250856001600160a01b03166113659092919063ffffffff16565b8051909150156111ba5780806020019051810190611306919061182d565b6111ba5760405162461bcd60e51b815260206004820152602a60248201527f5361666542455032303a204245503230206f7065726174696f6e20646964206e6044820152691bdd081cdd58d8d9595960b21b60648201526084016103d4565b6060611374848460008561137e565b90505b9392505050565b6060824710156113df5760405162461bcd60e51b815260206004820152602660248201527f416464726573733a20696e73756666696369656e742062616c616e636520666f6044820152651c8818d85b1b60d21b60648201526084016103d4565b6001600160a01b0385163b6114365760405162461bcd60e51b815260206004820152601d60248201527f416464726573733a2063616c6c20746f206e6f6e2d636f6e747261637400000060448201526064016103d4565b600080866001600160a01b031685876040516114529190611876565b60006040518083038185875af1925050503d806000811461148f576040519150601f19603f3d011682016040523d82523d6000602084013e611494565b606091505b5091509150611019828286606083156114ae575081611377565b8251156114be5782518084602001fd5b8160405162461bcd60e51b81526004016103d49190611892565b6000602082840312156114ea57600080fd5b5035919050565b6001600160a01b038116811461061057600080fd5b6000806040838503121561151957600080fd5b8235611524816114f1565b946020939093013593505050565b60006020828403121561154457600080fd5b8135611377816114f1565b600080600080600080600060e0888a03121561156a57600080fd5b8735611575816114f1565b96506020880135611585816114f1565b955060408801359450606088013593506080880135925060a0880135915060c08801356115b1816114f1565b8091505092959891949750929550565b600080604083850312156115d457600080fd5b50508035926020909101359150565b801515811461061057600080fd5b6000806040838503121561160457600080fd5b8235611524816115e3565b6020808252818101527f4f776e61626c653a2063616c6c6572206973206e6f7420746865206f776e6572604082015260600190565b6020808252601f908201527f5265656e7472616e637947756172643a207265656e7472616e742063616c6c00604082015260600190565b60006020828403121561168d57600080fd5b815160ff8116811461137757600080fd5b634e487b7160e01b600052601160045260246000fd5b600181815b808511156116ef5781600019048211156116d5576116d561169e565b808516156116e257918102915b93841c93908002906116b9565b509250929050565b60008261170657506001611139565b8161171357506000611139565b816001811461172957600281146117335761174f565b6001915050611139565b60ff8411156117445761174461169e565b50506001821b611139565b5060208310610133831016604e8410600b8410161715611772575081810a611139565b61177c83836116b4565b80600019048211156117905761179061169e565b029392505050565b600061113683836116f7565b6000602082840312156117b657600080fd5b5051919050565b60008160001904831182151516156117d7576117d761169e565b500290565b6000826117f957634e487b7160e01b600052601260045260246000fd5b500490565b6000828210156118105761181061169e565b500390565b600082198211156118285761182861169e565b500190565b60006020828403121561183f57600080fd5b8151611377816115e3565b60005b8381101561186557818101518382015260200161184d565b838111156112535750506000910152565b6000825161188881846020870161184a565b9190910192915050565b60208152600082518060208401526118b181604085016020870161184a565b601f01601f1916919091016040019291505056fea264697066735822122056f1d2e0033c1faaf6dc20022d2055182588d4de4256872c655aafcde7218ea264736f6c634300080b0033a2646970667358221220dfa852b546aacba60f2bd26889fd399adc01542d0c69ddae34ce7bed4ea9b4a764736f6c634300080b0033",
			"opcodes": "PUSH1 0x80 PUSH1 0x40 MSTORE CALLVALUE DUP1 ISZERO PUSH2 0x10 JUMPI PUSH1 0x0 DUP1 REVERT JUMPDEST POP PUSH2 0x1A CALLER PUSH2 0x1F JUMP JUMPDEST PUSH2 0x6F JUMP JUMPDEST PUSH1 0x0 DUP1 SLOAD PUSH1 0x1 PUSH1 0x1 PUSH1 0xA0 SHL SUB DUP4 DUP2 AND PUSH1 0x1 PUSH1 0x1 PUSH1 0xA0 SHL SUB NOT DUP4 AND DUP2 OR DUP5 SSTORE PUSH1 0x40 MLOAD SWAP2 SWAP1 SWAP3 AND SWAP3 DUP4 SWAP2 PUSH32 0x8BE0079C531659141344CD1FD0A4F28419497F9722A3DAAFE3B4186F6B6457E0 SWAP2 SWAP1 LOG3 POP POP JUMP JUMPDEST PUSH2 0x214A DUP1 PUSH2 0x7E PUSH1 0x0 CODECOPY PUSH1 0x0 RETURN INVALID PUSH1 0x80 PUSH1 0x40 MSTORE CALLVALUE DUP1 ISZERO PUSH2 0x10 JUMPI PUSH1 0x0 DUP1 REVERT JUMPDEST POP PUSH1 0x4 CALLDATASIZE LT PUSH2 0x62 JUMPI PUSH1 0x0 CALLDATALOAD PUSH1 0xE0 SHR DUP1 PUSH4 0x24D65ED8 EQ PUSH2 0x67 JUMPI DUP1 PUSH4 0x3B7D0946 EQ PUSH2 0x7C JUMPI DUP1 PUSH4 0x715018A6 EQ PUSH2 0x8F JUMPI DUP1 PUSH4 0x8DA5CB5B EQ PUSH2 0x97 JUMPI DUP1 PUSH4 0xA4063DBC EQ PUSH2 0xB7 JUMPI DUP1 PUSH4 0xF2FDE38B EQ PUSH2 0xEA JUMPI JUMPDEST PUSH1 0x0 DUP1 REVERT JUMPDEST PUSH2 0x7A PUSH2 0x75 CALLDATASIZE PUSH1 0x4 PUSH2 0x6A1 JUMP JUMPDEST PUSH2 0xFD JUMP JUMPDEST STOP JUMPDEST PUSH2 0x7A PUSH2 0x8A CALLDATASIZE PUSH1 0x4 PUSH2 0x713 JUMP JUMPDEST PUSH2 0x3C2 JUMP JUMPDEST PUSH2 0x7A PUSH2 0x495 JUMP JUMPDEST PUSH1 0x0 SLOAD PUSH1 0x40 MLOAD PUSH1 0x1 PUSH1 0x1 PUSH1 0xA0 SHL SUB SWAP1 SWAP2 AND DUP2 MSTORE PUSH1 0x20 ADD JUMPDEST PUSH1 0x40 MLOAD DUP1 SWAP2 SUB SWAP1 RETURN JUMPDEST PUSH2 0xDA PUSH2 0xC5 CALLDATASIZE PUSH1 0x4 PUSH2 0x713 JUMP JUMPDEST PUSH1 0x1 PUSH1 0x20 MSTORE PUSH1 0x0 SWAP1 DUP2 MSTORE PUSH1 0x40 SWAP1 KECCAK256 SLOAD PUSH1 0xFF AND DUP2 JUMP JUMPDEST PUSH1 0x40 MLOAD SWAP1 ISZERO ISZERO DUP2 MSTORE PUSH1 0x20 ADD PUSH2 0xAE JUMP JUMPDEST PUSH2 0x7A PUSH2 0xF8 CALLDATASIZE PUSH1 0x4 PUSH2 0x713 JUMP JUMPDEST PUSH2 0x4CB JUMP JUMPDEST PUSH1 0x0 SLOAD PUSH1 0x1 PUSH1 0x1 PUSH1 0xA0 SHL SUB AND CALLER EQ PUSH2 0x130 JUMPI PUSH1 0x40 MLOAD PUSH3 0x461BCD PUSH1 0xE5 SHL DUP2 MSTORE PUSH1 0x4 ADD PUSH2 0x127 SWAP1 PUSH2 0x737 JUMP JUMPDEST PUSH1 0x40 MLOAD DUP1 SWAP2 SUB SWAP1 REVERT JUMPDEST PUSH1 0x0 DUP8 PUSH1 0x1 PUSH1 0x1 PUSH1 0xA0 SHL SUB AND PUSH4 0x18160DDD PUSH1 0x40 MLOAD DUP2 PUSH4 0xFFFFFFFF AND PUSH1 0xE0 SHL DUP2 MSTORE PUSH1 0x4 ADD PUSH1 0x20 PUSH1 0x40 MLOAD DUP1 DUP4 SUB DUP2 DUP7 GAS STATICCALL ISZERO DUP1 ISZERO PUSH2 0x170 JUMPI RETURNDATASIZE PUSH1 0x0 DUP1 RETURNDATACOPY RETURNDATASIZE PUSH1 0x0 REVERT JUMPDEST POP POP POP POP PUSH1 0x40 MLOAD RETURNDATASIZE PUSH1 0x1F NOT PUSH1 0x1F DUP3 ADD AND DUP3 ADD DUP1 PUSH1 0x40 MSTORE POP DUP2 ADD SWAP1 PUSH2 0x194 SWAP2 SWAP1 PUSH2 0x76C JUMP JUMPDEST LT ISZERO PUSH2 0x19F JUMPI PUSH1 0x0 DUP1 REVERT JUMPDEST PUSH1 0x0 DUP7 PUSH1 0x1 PUSH1 0x1 PUSH1 0xA0 SHL SUB AND PUSH4 0x18160DDD PUSH1 0x40 MLOAD DUP2 PUSH4 0xFFFFFFFF AND PUSH1 0xE0 SHL DUP2 MSTORE PUSH1 0x4 ADD PUSH1 0x20 PUSH1 0x40 MLOAD DUP1 DUP4 SUB DUP2 DUP7 GAS STATICCALL ISZERO DUP1 ISZERO PUSH2 0x1DF JUMPI RETURNDATASIZE PUSH1 0x0 DUP1 RETURNDATACOPY RETURNDATASIZE PUSH1 0x0 REVERT JUMPDEST POP POP POP POP PUSH1 0x40 MLOAD RETURNDATASIZE PUSH1 0x1F NOT PUSH1 0x1F DUP3 ADD AND DUP3 ADD DUP1 PUSH1 0x40 MSTORE POP DUP2 ADD SWAP1 PUSH2 0x203 SWAP2 SWAP1 PUSH2 0x76C JUMP JUMPDEST LT ISZERO PUSH2 0x20E JUMPI PUSH1 0x0 DUP1 REVERT JUMPDEST DUP6 PUSH1 0x1 PUSH1 0x1 PUSH1 0xA0 SHL SUB AND DUP8 PUSH1 0x1 PUSH1 0x1 PUSH1 0xA0 SHL SUB AND EQ ISZERO PUSH2 0x270 JUMPI PUSH1 0x40 MLOAD PUSH3 0x461BCD PUSH1 0xE5 SHL DUP2 MSTORE PUSH1 0x20 PUSH1 0x4 DUP3 ADD MSTORE PUSH1 0x18 PUSH1 0x24 DUP3 ADD MSTORE PUSH32 0x546F6B656E73206D75737420626520646966666572656E740000000000000000 PUSH1 0x44 DUP3 ADD MSTORE PUSH1 0x64 ADD PUSH2 0x127 JUMP JUMPDEST PUSH1 0x0 PUSH1 0x40 MLOAD DUP1 PUSH1 0x20 ADD PUSH2 0x282 SWAP1 PUSH2 0x67F JUMP JUMPDEST PUSH1 0x1F NOT DUP3 DUP3 SUB DUP2 ADD DUP4 MSTORE PUSH1 0x1F SWAP1 SWAP2 ADD AND PUSH1 0x40 DUP2 SWAP1 MSTORE PUSH12 0xFFFFFFFFFFFFFFFFFFFFFFFF NOT PUSH1 0x60 DUP12 DUP2 SHL DUP3 AND PUSH1 0x20 DUP5 ADD MSTORE DUP11 SWAP1 SHL AND PUSH1 0x34 DUP3 ADD MSTORE PUSH1 0x48 DUP2 ADD DUP8 SWAP1 MSTORE SWAP1 SWAP2 POP PUSH1 0x0 SWAP1 PUSH1 0x68 ADD PUSH1 0x40 MLOAD PUSH1 0x20 DUP2 DUP4 SUB SUB DUP2 MSTORE SWAP1 PUSH1 0x40 MSTORE DUP1 MLOAD SWAP1 PUSH1 0x20 ADD KECCAK256 SWAP1 POP PUSH1 0x0 DUP2 DUP4 MLOAD PUSH1 0x20 DUP6 ADD PUSH1 0x0 CREATE2 PUSH1 0x40 MLOAD PUSH4 0x20E94107 PUSH1 0xE2 SHL DUP2 MSTORE PUSH1 0x1 PUSH1 0x1 PUSH1 0xA0 SHL SUB DUP13 DUP2 AND PUSH1 0x4 DUP4 ADD MSTORE DUP12 DUP2 AND PUSH1 0x24 DUP4 ADD MSTORE PUSH1 0x44 DUP3 ADD DUP12 SWAP1 MSTORE PUSH1 0x64 DUP3 ADD DUP11 SWAP1 MSTORE PUSH1 0x84 DUP3 ADD DUP10 SWAP1 MSTORE PUSH1 0xA4 DUP3 ADD DUP9 SWAP1 MSTORE DUP7 DUP2 AND PUSH1 0xC4 DUP4 ADD MSTORE SWAP2 SWAP3 POP SWAP1 DUP3 AND SWAP1 PUSH4 0x83A5041C SWAP1 PUSH1 0xE4 ADD PUSH1 0x0 PUSH1 0x40 MLOAD DUP1 DUP4 SUB DUP2 PUSH1 0x0 DUP8 DUP1 EXTCODESIZE ISZERO DUP1 ISZERO PUSH2 0x361 JUMPI PUSH1 0x0 DUP1 REVERT JUMPDEST POP GAS CALL ISZERO DUP1 ISZERO PUSH2 0x375 JUMPI RETURNDATASIZE PUSH1 0x0 DUP1 RETURNDATACOPY RETURNDATASIZE PUSH1 0x0 REVERT JUMPDEST POP POP POP POP PUSH2 0x382 DUP2 PUSH2 0x566 JUMP JUMPDEST PUSH1 0x40 MLOAD PUSH1 0x1 PUSH1 0x1 PUSH1 0xA0 SHL SUB DUP3 AND SWAP1 PUSH32 0xCFB199724E80EF87A82C051C6BCBE15CA80DBD143A1A7CA4F90BE72F4FD6BF87 SWAP1 PUSH1 0x0 SWAP1 LOG2 POP POP POP POP POP POP POP POP POP POP JUMP JUMPDEST PUSH1 0x0 SLOAD PUSH1 0x1 PUSH1 0x1 PUSH1 0xA0 SHL SUB AND CALLER EQ PUSH2 0x3EC JUMPI PUSH1 0x40 MLOAD PUSH3 0x461BCD PUSH1 0xE5 SHL DUP2 MSTORE PUSH1 0x4 ADD PUSH2 0x127 SWAP1 PUSH2 0x737 JUMP JUMPDEST PUSH1 0x1 PUSH1 0x1 PUSH1 0xA0 SHL SUB DUP2 AND PUSH1 0x0 SWAP1 DUP2 MSTORE PUSH1 0x1 PUSH1 0x20 MSTORE PUSH1 0x40 SWAP1 KECCAK256 SLOAD PUSH1 0xFF AND PUSH2 0x44C JUMPI PUSH1 0x40 MLOAD PUSH3 0x461BCD PUSH1 0xE5 SHL DUP2 MSTORE PUSH1 0x20 PUSH1 0x4 DUP3 ADD MSTORE PUSH1 0x15 PUSH1 0x24 DUP3 ADD MSTORE PUSH21 0x42464C593A20504F4F4C5F4E4F545F455849535453 PUSH1 0x58 SHL PUSH1 0x44 DUP3 ADD MSTORE PUSH1 0x64 ADD PUSH2 0x127 JUMP JUMPDEST PUSH1 0x1 PUSH1 0x1 PUSH1 0xA0 SHL SUB DUP2 AND PUSH1 0x0 DUP2 DUP2 MSTORE PUSH1 0x1 PUSH1 0x20 MSTORE PUSH1 0x40 DUP1 DUP3 KECCAK256 DUP1 SLOAD PUSH1 0xFF NOT AND SWAP1 SSTORE MLOAD PUSH32 0x719C8BC6522957E7735717AF2894124FBC9096CF04B5BFAABCFF51577908765 SWAP2 SWAP1 LOG2 POP JUMP JUMPDEST PUSH1 0x0 SLOAD PUSH1 0x1 PUSH1 0x1 PUSH1 0xA0 SHL SUB AND CALLER EQ PUSH2 0x4BF JUMPI PUSH1 0x40 MLOAD PUSH3 0x461BCD PUSH1 0xE5 SHL DUP2 MSTORE PUSH1 0x4 ADD PUSH2 0x127 SWAP1 PUSH2 0x737 JUMP JUMPDEST PUSH2 0x4C9 PUSH1 0x0 PUSH2 0x62F JUMP JUMPDEST JUMP JUMPDEST PUSH1 0x0 SLOAD PUSH1 0x1 PUSH1 0x1 PUSH1 0xA0 SHL SUB AND CALLER EQ PUSH2 0x4F5 JUMPI PUSH1 0x40 MLOAD PUSH3 0x461BCD PUSH1 0xE5 SHL DUP2 MSTORE PUSH1 0x4 ADD PUSH2 0x127 SWAP1 PUSH2 0x737 JUMP JUMPDEST PUSH1 0x1 PUSH1 0x1 PUSH1 0xA0 SHL SUB DUP2 AND PUSH2 0x55A JUMPI PUSH1 0x40 MLOAD PUSH3 0x461BCD PUSH1 0xE5 SHL DUP2 MSTORE PUSH1 0x20 PUSH1 0x4 DUP3 ADD MSTORE PUSH1 0x26 PUSH1 0x24 DUP3 ADD MSTORE PUSH32 0x4F776E61626C653A206E6577206F776E657220697320746865207A65726F2061 PUSH1 0x44 DUP3 ADD MSTORE PUSH6 0x646472657373 PUSH1 0xD0 SHL PUSH1 0x64 DUP3 ADD MSTORE PUSH1 0x84 ADD PUSH2 0x127 JUMP JUMPDEST PUSH2 0x563 DUP2 PUSH2 0x62F JUMP JUMPDEST POP JUMP JUMPDEST PUSH1 0x1 PUSH1 0x1 PUSH1 0xA0 SHL SUB DUP2 AND PUSH2 0x5B1 JUMPI PUSH1 0x40 MLOAD PUSH3 0x461BCD PUSH1 0xE5 SHL DUP2 MSTORE PUSH1 0x20 PUSH1 0x4 DUP3 ADD MSTORE PUSH1 0x12 PUSH1 0x24 DUP3 ADD MSTORE PUSH18 0x2123262C9D1024A72B20A624A22FA0A22229 PUSH1 0x71 SHL PUSH1 0x44 DUP3 ADD MSTORE PUSH1 0x64 ADD PUSH2 0x127 JUMP JUMPDEST PUSH1 0x1 PUSH1 0x1 PUSH1 0xA0 SHL SUB DUP2 AND PUSH1 0x0 SWAP1 DUP2 MSTORE PUSH1 0x1 PUSH1 0x20 MSTORE PUSH1 0x40 SWAP1 KECCAK256 SLOAD PUSH1 0xFF AND PUSH2 0x5F8 JUMPI PUSH1 0x1 PUSH1 0x1 PUSH1 0xA0 SHL SUB DUP2 AND PUSH1 0x0 SWAP1 DUP2 MSTORE PUSH1 0x1 PUSH1 0x20 DUP2 SWAP1 MSTORE PUSH1 0x40 SWAP1 SWAP2 KECCAK256 DUP1 SLOAD PUSH1 0xFF NOT AND SWAP1 SWAP2 OR SWAP1 SSTORE JUMPDEST PUSH1 0x40 MLOAD PUSH1 0x1 PUSH1 0x1 PUSH1 0xA0 SHL SUB DUP3 AND SWAP1 PUSH32 0x8C82D670BC9247C2CFB6964089BC9CFF0255F9CAADE6FBC74A13368083E55466 SWAP1 PUSH1 0x0 SWAP1 LOG2 POP JUMP JUMPDEST PUSH1 0x0 DUP1 SLOAD PUSH1 0x1 PUSH1 0x1 PUSH1 0xA0 SHL SUB DUP4 DUP2 AND PUSH1 0x1 PUSH1 0x1 PUSH1 0xA0 SHL SUB NOT DUP4 AND DUP2 OR DUP5 SSTORE PUSH1 0x40 MLOAD SWAP2 SWAP1 SWAP3 AND SWAP3 DUP4 SWAP2 PUSH32 0x8BE0079C531659141344CD1FD0A4F28419497F9722A3DAAFE3B4186F6B6457E0 SWAP2 SWAP1 LOG3 POP POP JUMP JUMPDEST PUSH2 0x198F DUP1 PUSH2 0x786 DUP4 CODECOPY ADD SWAP1 JUMP JUMPDEST PUSH1 0x1 PUSH1 0x1 PUSH1 0xA0 SHL SUB DUP2 AND DUP2 EQ PUSH2 0x563 JUMPI PUSH1 0x0 DUP1 REVERT JUMPDEST PUSH1 0x0 DUP1 PUSH1 0x0 DUP1 PUSH1 0x0 DUP1 PUSH1 0x0 PUSH1 0xE0 DUP9 DUP11 SUB SLT ISZERO PUSH2 0x6BC JUMPI PUSH1 0x0 DUP1 REVERT JUMPDEST DUP8 CALLDATALOAD PUSH2 0x6C7 DUP2 PUSH2 0x68C JUMP JUMPDEST SWAP7 POP PUSH1 0x20 DUP9 ADD CALLDATALOAD PUSH2 0x6D7 DUP2 PUSH2 0x68C JUMP JUMPDEST SWAP6 POP PUSH1 0x40 DUP9 ADD CALLDATALOAD SWAP5 POP PUSH1 0x60 DUP9 ADD CALLDATALOAD SWAP4 POP PUSH1 0x80 DUP9 ADD CALLDATALOAD SWAP3 POP PUSH1 0xA0 DUP9 ADD CALLDATALOAD SWAP2 POP PUSH1 0xC0 DUP9 ADD CALLDATALOAD PUSH2 0x703 DUP2 PUSH2 0x68C JUMP JUMPDEST DUP1 SWAP2 POP POP SWAP3 SWAP6 SWAP9 SWAP2 SWAP5 SWAP8 POP SWAP3 SWAP6 POP JUMP JUMPDEST PUSH1 0x0 PUSH1 0x20 DUP3 DUP5 SUB SLT ISZERO PUSH2 0x725 JUMPI PUSH1 0x0 DUP1 REVERT JUMPDEST DUP2 CALLDATALOAD PUSH2 0x730 DUP2 PUSH2 0x68C JUMP JUMPDEST SWAP4 SWAP3 POP POP POP JUMP JUMPDEST PUSH1 0x20 DUP1 DUP3 MSTORE DUP2 DUP2 ADD MSTORE PUSH32 0x4F776E61626C653A2063616C6C6572206973206E6F7420746865206F776E6572 PUSH1 0x40 DUP3 ADD MSTORE PUSH1 0x60 ADD SWAP1 JUMP JUMPDEST PUSH1 0x0 PUSH1 0x20 DUP3 DUP5 SUB SLT ISZERO PUSH2 0x77E JUMPI PUSH1 0x0 DUP1 REVERT JUMPDEST POP MLOAD SWAP2 SWAP1 POP JUMP INVALID PUSH1 0x80 PUSH1 0x40 MSTORE CALLVALUE DUP1 ISZERO PUSH2 0x10 JUMPI PUSH1 0x0 DUP1 REVERT JUMPDEST POP PUSH2 0x1A CALLER PUSH2 0x35 JUMP JUMPDEST PUSH1 0x1 DUP1 SSTORE PUSH1 0x2 DUP1 SLOAD PUSH1 0x1 PUSH1 0x1 PUSH1 0xA0 SHL SUB NOT AND CALLER OR SWAP1 SSTORE PUSH2 0x85 JUMP JUMPDEST PUSH1 0x0 DUP1 SLOAD PUSH1 0x1 PUSH1 0x1 PUSH1 0xA0 SHL SUB DUP4 DUP2 AND PUSH1 0x1 PUSH1 0x1 PUSH1 0xA0 SHL SUB NOT DUP4 AND DUP2 OR DUP5 SSTORE PUSH1 0x40 MLOAD SWAP2 SWAP1 SWAP3 AND SWAP3 DUP4 SWAP2 PUSH32 0x8BE0079C531659141344CD1FD0A4F28419497F9722A3DAAFE3B4186F6B6457E0 SWAP2 SWAP1 LOG3 POP POP JUMP JUMPDEST PUSH2 0x18FB DUP1 PUSH2 0x94 PUSH1 0x0 CODECOPY PUSH1 0x0 RETURN INVALID PUSH1 0x80 PUSH1 0x40 MSTORE CALLVALUE DUP1 ISZERO PUSH2 0x10 JUMPI PUSH1 0x0 DUP1 REVERT JUMPDEST POP PUSH1 0x4 CALLDATASIZE LT PUSH2 0x1A9 JUMPI PUSH1 0x0 CALLDATALOAD PUSH1 0xE0 SHR DUP1 PUSH4 0x8DA5CB5B GT PUSH2 0xF9 JUMPI DUP1 PUSH4 0xBD617191 GT PUSH2 0x97 JUMPI DUP1 PUSH4 0xDB2E21BC GT PUSH2 0x71 JUMPI DUP1 PUSH4 0xDB2E21BC EQ PUSH2 0x369 JUMPI DUP1 PUSH4 0xF2FDE38B EQ PUSH2 0x371 JUMPI DUP1 PUSH4 0xF40F0F52 EQ PUSH2 0x384 JUMPI DUP1 PUSH4 0xF7C618C1 EQ PUSH2 0x397 JUMPI PUSH1 0x0 DUP1 REVERT JUMPDEST DUP1 PUSH4 0xBD617191 EQ PUSH2 0x33A JUMPI DUP1 PUSH4 0xCC7A262E EQ PUSH2 0x34D JUMPI DUP1 PUSH4 0xCCD34CD5 EQ PUSH2 0x360 JUMPI PUSH1 0x0 DUP1 REVERT JUMPDEST DUP1 PUSH4 0x9513997F GT PUSH2 0xD3 JUMPI DUP1 PUSH4 0x9513997F EQ PUSH2 0x2F8 JUMPI DUP1 PUSH4 0xA0B40905 EQ PUSH2 0x30B JUMPI DUP1 PUSH4 0xA9F8D181 EQ PUSH2 0x31E JUMPI DUP1 PUSH4 0xB6B55F25 EQ PUSH2 0x327 JUMPI PUSH1 0x0 DUP1 REVERT JUMPDEST DUP1 PUSH4 0x8DA5CB5B EQ PUSH2 0x2B6 JUMPI DUP1 PUSH4 0x8F662915 EQ PUSH2 0x2DB JUMPI DUP1 PUSH4 0x92E8990E EQ PUSH2 0x2E4 JUMPI PUSH1 0x0 DUP1 REVERT JUMPDEST DUP1 PUSH4 0x43B0215F GT PUSH2 0x166 JUMPI DUP1 PUSH4 0x715018A6 GT PUSH2 0x140 JUMPI DUP1 PUSH4 0x715018A6 EQ PUSH2 0x28A JUMPI DUP1 PUSH4 0x80DC0672 EQ PUSH2 0x292 JUMPI DUP1 PUSH4 0x83A5041C EQ PUSH2 0x29A JUMPI DUP1 PUSH4 0x8AE39CAC EQ PUSH2 0x2AD JUMPI PUSH1 0x0 DUP1 REVERT JUMPDEST DUP1 PUSH4 0x43B0215F EQ PUSH2 0x23C JUMPI DUP1 PUSH4 0x48CD4CB1 EQ PUSH2 0x278 JUMPI DUP1 PUSH4 0x66FE9F8A EQ PUSH2 0x281 JUMPI PUSH1 0x0 DUP1 REVERT JUMPDEST DUP1 PUSH4 0x1F8A976 EQ PUSH2 0x1AE JUMPI DUP1 PUSH4 0x1AED6553 EQ PUSH2 0x1C3 JUMPI DUP1 PUSH4 0x2E1A7D4D EQ PUSH2 0x1DF JUMPI DUP1 PUSH4 0x3279BEAB EQ PUSH2 0x1F2 JUMPI DUP1 PUSH4 0x392E53CD EQ PUSH2 0x205 JUMPI DUP1 PUSH4 0x3F138D4B EQ PUSH2 0x229 JUMPI JUMPDEST PUSH1 0x0 DUP1 REVERT JUMPDEST PUSH2 0x1C1 PUSH2 0x1BC CALLDATASIZE PUSH1 0x4 PUSH2 0x14D8 JUMP JUMPDEST PUSH2 0x3AA JUMP JUMPDEST STOP JUMPDEST PUSH2 0x1CC PUSH1 0x4 SLOAD DUP2 JUMP JUMPDEST PUSH1 0x40 MLOAD SWAP1 DUP2 MSTORE PUSH1 0x20 ADD JUMPDEST PUSH1 0x40 MLOAD DUP1 SWAP2 SUB SWAP1 RETURN JUMPDEST PUSH2 0x1C1 PUSH2 0x1ED CALLDATASIZE PUSH1 0x4 PUSH2 0x14D8 JUMP JUMPDEST PUSH2 0x45C JUMP JUMPDEST PUSH2 0x1C1 PUSH2 0x200 CALLDATASIZE PUSH1 0x4 PUSH2 0x14D8 JUMP JUMPDEST PUSH2 0x5CF JUMP JUMPDEST PUSH1 0x2 SLOAD PUSH2 0x219 SWAP1 PUSH1 0x1 PUSH1 0xA8 SHL SWAP1 DIV PUSH1 0xFF AND DUP2 JUMP JUMPDEST PUSH1 0x40 MLOAD SWAP1 ISZERO ISZERO DUP2 MSTORE PUSH1 0x20 ADD PUSH2 0x1D6 JUMP JUMPDEST PUSH2 0x1C1 PUSH2 0x237 CALLDATASIZE PUSH1 0x4 PUSH2 0x1506 JUMP JUMPDEST PUSH2 0x613 JUMP JUMPDEST PUSH2 0x263 PUSH2 0x24A CALLDATASIZE PUSH1 0x4 PUSH2 0x1532 JUMP JUMPDEST PUSH1 0xC PUSH1 0x20 MSTORE PUSH1 0x0 SWAP1 DUP2 MSTORE PUSH1 0x40 SWAP1 KECCAK256 DUP1 SLOAD PUSH1 0x1 SWAP1 SWAP2 ADD SLOAD DUP3 JUMP JUMPDEST PUSH1 0x40 DUP1 MLOAD SWAP3 DUP4 MSTORE PUSH1 0x20 DUP4 ADD SWAP2 SWAP1 SWAP2 MSTORE ADD PUSH2 0x1D6 JUMP JUMPDEST PUSH2 0x1CC PUSH1 0x5 SLOAD DUP2 JUMP JUMPDEST PUSH2 0x1CC PUSH1 0x7 SLOAD DUP2 JUMP JUMPDEST PUSH2 0x1C1 PUSH2 0x746 JUMP JUMPDEST PUSH2 0x1C1 PUSH2 0x77C JUMP JUMPDEST PUSH2 0x1C1 PUSH2 0x2A8 CALLDATASIZE PUSH1 0x4 PUSH2 0x154F JUMP JUMPDEST PUSH2 0x7AC JUMP JUMPDEST PUSH2 0x1CC PUSH1 0x8 SLOAD DUP2 JUMP JUMPDEST PUSH1 0x0 SLOAD PUSH1 0x1 PUSH1 0x1 PUSH1 0xA0 SHL SUB AND JUMPDEST PUSH1 0x40 MLOAD PUSH1 0x1 PUSH1 0x1 PUSH1 0xA0 SHL SUB SWAP1 SWAP2 AND DUP2 MSTORE PUSH1 0x20 ADD PUSH2 0x1D6 JUMP JUMPDEST PUSH2 0x1CC PUSH1 0x3 SLOAD DUP2 JUMP JUMPDEST PUSH1 0x2 SLOAD PUSH2 0x219 SWAP1 PUSH1 0x1 PUSH1 0xA0 SHL SWAP1 DIV PUSH1 0xFF AND DUP2 JUMP JUMPDEST PUSH2 0x1C1 PUSH2 0x306 CALLDATASIZE PUSH1 0x4 PUSH2 0x15C1 JUMP JUMPDEST PUSH2 0x9AF JUMP JUMPDEST PUSH2 0x1C1 PUSH2 0x319 CALLDATASIZE PUSH1 0x4 PUSH2 0x15F1 JUMP JUMPDEST PUSH2 0xB30 JUMP JUMPDEST PUSH2 0x1CC PUSH1 0x6 SLOAD DUP2 JUMP JUMPDEST PUSH2 0x1C1 PUSH2 0x335 CALLDATASIZE PUSH1 0x4 PUSH2 0x14D8 JUMP JUMPDEST PUSH2 0xC52 JUMP JUMPDEST PUSH1 0x2 SLOAD PUSH2 0x2C3 SWAP1 PUSH1 0x1 PUSH1 0x1 PUSH1 0xA0 SHL SUB AND DUP2 JUMP JUMPDEST PUSH1 0xB SLOAD PUSH2 0x2C3 SWAP1 PUSH1 0x1 PUSH1 0x1 PUSH1 0xA0 SHL SUB AND DUP2 JUMP JUMPDEST PUSH2 0x1CC PUSH1 0x9 SLOAD DUP2 JUMP JUMPDEST PUSH2 0x1C1 PUSH2 0xDD9 JUMP JUMPDEST PUSH2 0x1C1 PUSH2 0x37F CALLDATASIZE PUSH1 0x4 PUSH2 0x1532 JUMP JUMPDEST PUSH2 0xE70 JUMP JUMPDEST PUSH2 0x1CC PUSH2 0x392 CALLDATASIZE PUSH1 0x4 PUSH2 0x1532 JUMP JUMPDEST PUSH2 0xF08 JUMP JUMPDEST PUSH1 0xA SLOAD PUSH2 0x2C3 SWAP1 PUSH1 0x1 PUSH1 0x1 PUSH1 0xA0 SHL SUB AND DUP2 JUMP JUMPDEST PUSH1 0x0 SLOAD PUSH1 0x1 PUSH1 0x1 PUSH1 0xA0 SHL SUB AND CALLER EQ PUSH2 0x3DD JUMPI PUSH1 0x40 MLOAD PUSH3 0x461BCD PUSH1 0xE5 SHL DUP2 MSTORE PUSH1 0x4 ADD PUSH2 0x3D4 SWAP1 PUSH2 0x160F JUMP JUMPDEST PUSH1 0x40 MLOAD DUP1 SWAP2 SUB SWAP1 REVERT JUMPDEST PUSH1 0x5 SLOAD NUMBER LT PUSH2 0x421 JUMPI PUSH1 0x40 MLOAD PUSH3 0x461BCD PUSH1 0xE5 SHL DUP2 MSTORE PUSH1 0x20 PUSH1 0x4 DUP3 ADD MSTORE PUSH1 0x10 PUSH1 0x24 DUP3 ADD MSTORE PUSH16 0x141BDBDB081A185CC81CDD185C9D1959 PUSH1 0x82 SHL PUSH1 0x44 DUP3 ADD MSTORE PUSH1 0x64 ADD PUSH2 0x3D4 JUMP JUMPDEST PUSH1 0x8 DUP2 SWAP1 SSTORE PUSH1 0x40 MLOAD DUP2 DUP2 MSTORE PUSH32 0xC4D677EEF92893AC7EC52FAF8140FC6C851AB4736302B4F3A89DFB20696A0DF SWAP1 PUSH1 0x20 ADD PUSH1 0x40 MLOAD DUP1 SWAP2 SUB SWAP1 LOG1 POP JUMP JUMPDEST PUSH1 0x2 PUSH1 0x1 SLOAD EQ ISZERO PUSH2 0x47F JUMPI PUSH1 0x40 MLOAD PUSH3 0x461BCD PUSH1 0xE5 SHL DUP2 MSTORE PUSH1 0x4 ADD PUSH2 0x3D4 SWAP1 PUSH2 0x1644 JUMP JUMPDEST PUSH1 0x2 PUSH1 0x1 SSTORE CALLER PUSH1 0x0 SWAP1 DUP2 MSTORE PUSH1 0xC PUSH1 0x20 MSTORE PUSH1 0x40 SWAP1 KECCAK256 DUP1 SLOAD DUP3 GT ISZERO PUSH2 0x4EE JUMPI PUSH1 0x40 MLOAD PUSH3 0x461BCD PUSH1 0xE5 SHL DUP2 MSTORE PUSH1 0x20 PUSH1 0x4 DUP3 ADD MSTORE PUSH1 0x21 PUSH1 0x24 DUP3 ADD MSTORE PUSH32 0x42464C593A20416D6F756E7420746F20776974686472617720746F6F20686967 PUSH1 0x44 DUP3 ADD MSTORE PUSH1 0xD PUSH1 0xFB SHL PUSH1 0x64 DUP3 ADD MSTORE PUSH1 0x84 ADD PUSH2 0x3D4 JUMP JUMPDEST PUSH2 0x4F6 PUSH2 0x1053 JUMP JUMPDEST PUSH1 0x0 PUSH2 0x52B DUP3 PUSH1 0x1 ADD SLOAD PUSH2 0x525 PUSH1 0x9 SLOAD PUSH2 0x51F PUSH1 0x3 SLOAD DUP8 PUSH1 0x0 ADD SLOAD PUSH2 0x112A SWAP1 SWAP2 SWAP1 PUSH4 0xFFFFFFFF AND JUMP JUMPDEST SWAP1 PUSH2 0x113F JUMP JUMPDEST SWAP1 PUSH2 0x114B JUMP JUMPDEST SWAP1 POP DUP3 ISZERO PUSH2 0x558 JUMPI DUP2 SLOAD PUSH2 0x53F SWAP1 DUP5 PUSH2 0x114B JUMP JUMPDEST DUP3 SSTORE PUSH1 0xB SLOAD PUSH2 0x558 SWAP1 PUSH1 0x1 PUSH1 0x1 PUSH1 0xA0 SHL SUB AND CALLER DUP6 PUSH2 0x1157 JUMP JUMPDEST DUP1 ISZERO PUSH2 0x575 JUMPI PUSH1 0xA SLOAD PUSH2 0x575 SWAP1 PUSH1 0x1 PUSH1 0x1 PUSH1 0xA0 SHL SUB AND CALLER DUP4 PUSH2 0x1157 JUMP JUMPDEST PUSH1 0x9 SLOAD PUSH1 0x3 SLOAD DUP4 SLOAD PUSH2 0x58C SWAP3 SWAP2 PUSH2 0x51F SWAP2 SWAP1 PUSH2 0x112A JUMP JUMPDEST PUSH1 0x1 DUP4 ADD SSTORE PUSH1 0x40 MLOAD DUP4 DUP2 MSTORE CALLER SWAP1 PUSH32 0x884EDAD9CE6FA2440D8A54CC123490EB96D2768479D49FF9C7366125A9424364 SWAP1 PUSH1 0x20 ADD PUSH1 0x40 MLOAD DUP1 SWAP2 SUB SWAP1 LOG2 POP POP PUSH1 0x1 DUP1 SSTORE POP JUMP JUMPDEST PUSH1 0x0 SLOAD PUSH1 0x1 PUSH1 0x1 PUSH1 0xA0 SHL SUB AND CALLER EQ PUSH2 0x5F9 JUMPI PUSH1 0x40 MLOAD PUSH3 0x461BCD PUSH1 0xE5 SHL DUP2 MSTORE PUSH1 0x4 ADD PUSH2 0x3D4 SWAP1 PUSH2 0x160F JUMP JUMPDEST PUSH1 0xA SLOAD PUSH2 0x610 SWAP1 PUSH1 0x1 PUSH1 0x1 PUSH1 0xA0 SHL SUB AND CALLER DUP4 PUSH2 0x1157 JUMP JUMPDEST POP JUMP JUMPDEST PUSH1 0x0 SLOAD PUSH1 0x1 PUSH1 0x1 PUSH1 0xA0 SHL SUB AND CALLER EQ PUSH2 0x63D JUMPI PUSH1 0x40 MLOAD PUSH3 0x461BCD PUSH1 0xE5 SHL DUP2 MSTORE PUSH1 0x4 ADD PUSH2 0x3D4 SWAP1 PUSH2 0x160F JUMP JUMPDEST PUSH1 0xB SLOAD PUSH1 0x1 PUSH1 0x1 PUSH1 0xA0 SHL SUB DUP4 DUP2 AND SWAP2 AND EQ ISZERO PUSH2 0x694 JUMPI PUSH1 0x40 MLOAD PUSH3 0x461BCD PUSH1 0xE5 SHL DUP2 MSTORE PUSH1 0x20 PUSH1 0x4 DUP3 ADD MSTORE PUSH1 0x16 PUSH1 0x24 DUP3 ADD MSTORE PUSH22 0x21B0B73737BA1031329039BA30B5B2B2103A37B5B2B7 PUSH1 0x51 SHL PUSH1 0x44 DUP3 ADD MSTORE PUSH1 0x64 ADD PUSH2 0x3D4 JUMP JUMPDEST PUSH1 0xA SLOAD PUSH1 0x1 PUSH1 0x1 PUSH1 0xA0 SHL SUB DUP4 DUP2 AND SWAP2 AND EQ ISZERO PUSH2 0x6EB JUMPI PUSH1 0x40 MLOAD PUSH3 0x461BCD PUSH1 0xE5 SHL DUP2 MSTORE PUSH1 0x20 PUSH1 0x4 DUP3 ADD MSTORE PUSH1 0x16 PUSH1 0x24 DUP3 ADD MSTORE PUSH22 0x21B0B73737BA103132903932BBB0B932103A37B5B2B7 PUSH1 0x51 SHL PUSH1 0x44 DUP3 ADD MSTORE PUSH1 0x64 ADD PUSH2 0x3D4 JUMP JUMPDEST PUSH2 0x6FF PUSH1 0x1 PUSH1 0x1 PUSH1 0xA0 SHL SUB DUP4 AND CALLER DUP4 PUSH2 0x1157 JUMP JUMPDEST PUSH1 0x40 DUP1 MLOAD PUSH1 0x1 PUSH1 0x1 PUSH1 0xA0 SHL SUB DUP5 AND DUP2 MSTORE PUSH1 0x20 DUP2 ADD DUP4 SWAP1 MSTORE PUSH32 0x74545154AAC348A3EAC92596BD1971957CA94795F4E954EC5F613B55FAB78129 SWAP2 ADD JUMPDEST PUSH1 0x40 MLOAD DUP1 SWAP2 SUB SWAP1 LOG1 POP POP JUMP JUMPDEST PUSH1 0x0 SLOAD PUSH1 0x1 PUSH1 0x1 PUSH1 0xA0 SHL SUB AND CALLER EQ PUSH2 0x770 JUMPI PUSH1 0x40 MLOAD PUSH3 0x461BCD PUSH1 0xE5 SHL DUP2 MSTORE PUSH1 0x4 ADD PUSH2 0x3D4 SWAP1 PUSH2 0x160F JUMP JUMPDEST PUSH2 0x77A PUSH1 0x0 PUSH2 0x11BF JUMP JUMPDEST JUMP JUMPDEST PUSH1 0x0 SLOAD PUSH1 0x1 PUSH1 0x1 PUSH1 0xA0 SHL SUB AND CALLER EQ PUSH2 0x7A6 JUMPI PUSH1 0x40 MLOAD PUSH3 0x461BCD PUSH1 0xE5 SHL DUP2 MSTORE PUSH1 0x4 ADD PUSH2 0x3D4 SWAP1 PUSH2 0x160F JUMP JUMPDEST NUMBER PUSH1 0x4 SSTORE JUMP JUMPDEST PUSH1 0x2 SLOAD PUSH1 0x1 PUSH1 0xA8 SHL SWAP1 DIV PUSH1 0xFF AND ISZERO PUSH2 0x7FB JUMPI PUSH1 0x40 MLOAD PUSH3 0x461BCD PUSH1 0xE5 SHL DUP2 MSTORE PUSH1 0x20 PUSH1 0x4 DUP3 ADD MSTORE PUSH1 0x12 PUSH1 0x24 DUP3 ADD MSTORE PUSH18 0x109193164E881053149150511657D2539255 PUSH1 0x72 SHL PUSH1 0x44 DUP3 ADD MSTORE PUSH1 0x64 ADD PUSH2 0x3D4 JUMP JUMPDEST PUSH1 0x2 SLOAD PUSH1 0x1 PUSH1 0x1 PUSH1 0xA0 SHL SUB AND CALLER EQ PUSH2 0x849 JUMPI PUSH1 0x40 MLOAD PUSH3 0x461BCD PUSH1 0xE5 SHL DUP2 MSTORE PUSH1 0x20 PUSH1 0x4 DUP3 ADD MSTORE PUSH1 0x11 PUSH1 0x24 DUP3 ADD MSTORE PUSH17 0x42464C593A204E4F545F464143544F5259 PUSH1 0x78 SHL PUSH1 0x44 DUP3 ADD MSTORE PUSH1 0x64 ADD PUSH2 0x3D4 JUMP JUMPDEST PUSH1 0x2 DUP1 SLOAD PUSH1 0xFF PUSH1 0xA8 SHL NOT AND PUSH1 0x1 PUSH1 0xA8 SHL OR SWAP1 SSTORE PUSH1 0xB DUP1 SLOAD PUSH1 0x1 PUSH1 0x1 PUSH1 0xA0 SHL SUB DUP1 DUP11 AND PUSH1 0x1 PUSH1 0x1 PUSH1 0xA0 SHL SUB NOT SWAP3 DUP4 AND OR SWAP1 SWAP3 SSTORE PUSH1 0xA DUP1 SLOAD SWAP3 DUP10 AND SWAP3 SWAP1 SWAP2 AND SWAP2 SWAP1 SWAP2 OR SWAP1 SSTORE PUSH1 0x8 DUP6 SWAP1 SSTORE PUSH1 0x5 DUP5 SWAP1 SSTORE PUSH1 0x4 DUP4 SWAP1 SSTORE DUP2 ISZERO PUSH2 0x8BA JUMPI PUSH1 0x2 DUP1 SLOAD PUSH1 0xFF PUSH1 0xA0 SHL NOT AND PUSH1 0x1 PUSH1 0xA0 SHL OR SWAP1 SSTORE PUSH1 0x7 DUP3 SWAP1 SSTORE JUMPDEST PUSH1 0xA SLOAD PUSH1 0x40 DUP1 MLOAD PUSH4 0x313CE567 PUSH1 0xE0 SHL DUP2 MSTORE SWAP1 MLOAD PUSH1 0x0 SWAP3 PUSH1 0x1 PUSH1 0x1 PUSH1 0xA0 SHL SUB AND SWAP2 PUSH4 0x313CE567 SWAP2 PUSH1 0x4 DUP1 DUP4 ADD SWAP3 PUSH1 0x20 SWAP3 SWAP2 SWAP1 DUP3 SWAP1 SUB ADD DUP2 DUP7 GAS STATICCALL ISZERO DUP1 ISZERO PUSH2 0x904 JUMPI RETURNDATASIZE PUSH1 0x0 DUP1 RETURNDATACOPY RETURNDATASIZE PUSH1 0x0 REVERT JUMPDEST POP POP POP POP PUSH1 0x40 MLOAD RETURNDATASIZE PUSH1 0x1F NOT PUSH1 0x1F DUP3 ADD AND DUP3 ADD DUP1 PUSH1 0x40 MSTORE POP DUP2 ADD SWAP1 PUSH2 0x928 SWAP2 SWAP1 PUSH2 0x167B JUMP JUMPDEST PUSH1 0xFF AND SWAP1 POP PUSH1 0x1E DUP2 LT PUSH2 0x97D JUMPI PUSH1 0x40 MLOAD PUSH3 0x461BCD PUSH1 0xE5 SHL DUP2 MSTORE PUSH1 0x20 PUSH1 0x4 DUP3 ADD MSTORE PUSH1 0x1C PUSH1 0x24 DUP3 ADD MSTORE PUSH32 0x42464C593A204D75737420626520696E666572696F7220746F20333000000000 PUSH1 0x44 DUP3 ADD MSTORE PUSH1 0x64 ADD PUSH2 0x3D4 JUMP JUMPDEST PUSH2 0x988 PUSH1 0x1E DUP3 PUSH2 0x114B JUMP JUMPDEST PUSH2 0x993 SWAP1 PUSH1 0xA PUSH2 0x1798 JUMP JUMPDEST PUSH1 0x9 SSTORE PUSH1 0x5 SLOAD PUSH1 0x6 SSTORE PUSH2 0x9A5 DUP3 PUSH2 0xE70 JUMP JUMPDEST POP POP POP POP POP POP POP POP JUMP JUMPDEST PUSH1 0x0 SLOAD PUSH1 0x1 PUSH1 0x1 PUSH1 0xA0 SHL SUB AND CALLER EQ PUSH2 0x9D9 JUMPI PUSH1 0x40 MLOAD PUSH3 0x461BCD PUSH1 0xE5 SHL DUP2 MSTORE PUSH1 0x4 ADD PUSH2 0x3D4 SWAP1 PUSH2 0x160F JUMP JUMPDEST PUSH1 0x5 SLOAD NUMBER LT PUSH2 0xA1D JUMPI PUSH1 0x40 MLOAD PUSH3 0x461BCD PUSH1 0xE5 SHL DUP2 MSTORE PUSH1 0x20 PUSH1 0x4 DUP3 ADD MSTORE PUSH1 0x10 PUSH1 0x24 DUP3 ADD MSTORE PUSH16 0x141BDBDB081A185CC81CDD185C9D1959 PUSH1 0x82 SHL PUSH1 0x44 DUP3 ADD MSTORE PUSH1 0x64 ADD PUSH2 0x3D4 JUMP JUMPDEST DUP1 DUP3 LT PUSH2 0xA83 JUMPI PUSH1 0x40 MLOAD PUSH3 0x461BCD PUSH1 0xE5 SHL DUP2 MSTORE PUSH1 0x20 PUSH1 0x4 DUP3 ADD MSTORE PUSH1 0x2E PUSH1 0x24 DUP3 ADD MSTORE PUSH32 0x4E6577207374617274426C6F636B206D757374206265206C6F77657220746861 PUSH1 0x44 DUP3 ADD MSTORE PUSH14 0x6E206E657720656E64426C6F636B PUSH1 0x90 SHL PUSH1 0x64 DUP3 ADD MSTORE PUSH1 0x84 ADD PUSH2 0x3D4 JUMP JUMPDEST DUP2 NUMBER LT PUSH2 0xAEB JUMPI PUSH1 0x40 MLOAD PUSH3 0x461BCD PUSH1 0xE5 SHL DUP2 MSTORE PUSH1 0x20 PUSH1 0x4 DUP3 ADD MSTORE PUSH1 0x30 PUSH1 0x24 DUP3 ADD MSTORE PUSH32 0x4E6577207374617274426C6F636B206D75737420626520686967686572207468 PUSH1 0x44 DUP3 ADD MSTORE PUSH16 0x616E2063757272656E7420626C6F636B PUSH1 0x80 SHL PUSH1 0x64 DUP3 ADD MSTORE PUSH1 0x84 ADD PUSH2 0x3D4 JUMP JUMPDEST PUSH1 0x5 DUP3 SWAP1 SSTORE PUSH1 0x4 DUP2 SWAP1 SSTORE PUSH1 0x6 DUP3 SWAP1 SSTORE PUSH1 0x40 DUP1 MLOAD DUP4 DUP2 MSTORE PUSH1 0x20 DUP2 ADD DUP4 SWAP1 MSTORE PUSH32 0x7CD0AB87D19036F3DFADADB232C78AA4879DDA3F0C994A9D637532410EE2CE06 SWAP2 ADD PUSH2 0x73A JUMP JUMPDEST PUSH1 0x0 SLOAD PUSH1 0x1 PUSH1 0x1 PUSH1 0xA0 SHL SUB AND CALLER EQ PUSH2 0xB5A JUMPI PUSH1 0x40 MLOAD PUSH3 0x461BCD PUSH1 0xE5 SHL DUP2 MSTORE PUSH1 0x4 ADD PUSH2 0x3D4 SWAP1 PUSH2 0x160F JUMP JUMPDEST PUSH1 0x2 SLOAD PUSH1 0x1 PUSH1 0xA0 SHL SWAP1 DIV PUSH1 0xFF AND PUSH2 0xBA1 JUMPI PUSH1 0x40 MLOAD PUSH3 0x461BCD PUSH1 0xE5 SHL DUP2 MSTORE PUSH1 0x20 PUSH1 0x4 DUP3 ADD MSTORE PUSH1 0xB PUSH1 0x24 DUP3 ADD MSTORE PUSH11 0x135D5CDD081899481CD95D PUSH1 0xAA SHL PUSH1 0x44 DUP3 ADD MSTORE PUSH1 0x64 ADD PUSH2 0x3D4 JUMP JUMPDEST DUP2 ISZERO PUSH2 0xC02 JUMPI PUSH1 0x7 SLOAD DUP2 GT PUSH2 0xBF8 JUMPI PUSH1 0x40 MLOAD PUSH3 0x461BCD PUSH1 0xE5 SHL DUP2 MSTORE PUSH1 0x20 PUSH1 0x4 DUP3 ADD MSTORE PUSH1 0x18 PUSH1 0x24 DUP3 ADD MSTORE PUSH32 0x4E6577206C696D6974206D757374206265206869676865720000000000000000 PUSH1 0x44 DUP3 ADD MSTORE PUSH1 0x64 ADD PUSH2 0x3D4 JUMP JUMPDEST PUSH1 0x7 DUP2 SWAP1 SSTORE PUSH2 0xC1F JUMP JUMPDEST PUSH1 0x2 DUP1 SLOAD PUSH1 0xFF PUSH1 0xA0 SHL NOT AND PUSH1 0x1 PUSH1 0xA0 SHL DUP5 ISZERO ISZERO MUL OR SWAP1 SSTORE PUSH1 0x0 PUSH1 0x7 SSTORE JUMPDEST PUSH32 0x241F67EE5F41B7A5CABF911367329BE7215900F602EBFC47F89DCE2A6BCD847C PUSH1 0x7 SLOAD PUSH1 0x40 MLOAD PUSH2 0x73A SWAP2 DUP2 MSTORE PUSH1 0x20 ADD SWAP1 JUMP JUMPDEST PUSH1 0x2 PUSH1 0x1 SLOAD EQ ISZERO PUSH2 0xC75 JUMPI PUSH1 0x40 MLOAD PUSH3 0x461BCD PUSH1 0xE5 SHL DUP2 MSTORE PUSH1 0x4 ADD PUSH2 0x3D4 SWAP1 PUSH2 0x1644 JUMP JUMPDEST PUSH1 0x2 PUSH1 0x1 DUP2 SWAP1 SSTORE CALLER PUSH1 0x0 SWAP1 DUP2 MSTORE PUSH1 0xC PUSH1 0x20 MSTORE PUSH1 0x40 SWAP1 KECCAK256 SWAP1 SLOAD PUSH1 0x1 PUSH1 0xA0 SHL SWAP1 DIV PUSH1 0xFF AND ISZERO PUSH2 0xCFA JUMPI PUSH1 0x7 SLOAD DUP2 SLOAD PUSH2 0xCAC SWAP1 DUP5 SWAP1 PUSH2 0x120F JUMP JUMPDEST GT ISZERO PUSH2 0xCFA JUMPI PUSH1 0x40 MLOAD PUSH3 0x461BCD PUSH1 0xE5 SHL DUP2 MSTORE PUSH1 0x20 PUSH1 0x4 DUP3 ADD MSTORE PUSH1 0x1D PUSH1 0x24 DUP3 ADD MSTORE PUSH32 0x42464C593A205573657220616D6F756E742061626F7665206C696D6974000000 PUSH1 0x44 DUP3 ADD MSTORE PUSH1 0x64 ADD PUSH2 0x3D4 JUMP JUMPDEST PUSH2 0xD02 PUSH2 0x1053 JUMP JUMPDEST DUP1 SLOAD ISZERO PUSH2 0xD53 JUMPI PUSH1 0x0 PUSH2 0xD32 DUP3 PUSH1 0x1 ADD SLOAD PUSH2 0x525 PUSH1 0x9 SLOAD PUSH2 0x51F PUSH1 0x3 SLOAD DUP8 PUSH1 0x0 ADD SLOAD PUSH2 0x112A SWAP1 SWAP2 SWAP1 PUSH4 0xFFFFFFFF AND JUMP JUMPDEST SWAP1 POP DUP1 ISZERO PUSH2 0xD51 JUMPI PUSH1 0xA SLOAD PUSH2 0xD51 SWAP1 PUSH1 0x1 PUSH1 0x1 PUSH1 0xA0 SHL SUB AND CALLER DUP4 PUSH2 0x1157 JUMP JUMPDEST POP JUMPDEST DUP2 ISZERO PUSH2 0xD7F JUMPI DUP1 SLOAD PUSH2 0xD65 SWAP1 DUP4 PUSH2 0x120F JUMP JUMPDEST DUP2 SSTORE PUSH1 0xB SLOAD PUSH2 0xD7F SWAP1 PUSH1 0x1 PUSH1 0x1 PUSH1 0xA0 SHL SUB AND CALLER ADDRESS DUP6 PUSH2 0x121B JUMP JUMPDEST PUSH1 0x9 SLOAD PUSH1 0x3 SLOAD DUP3 SLOAD PUSH2 0xD96 SWAP3 SWAP2 PUSH2 0x51F SWAP2 SWAP1 PUSH2 0x112A JUMP JUMPDEST PUSH1 0x1 DUP3 ADD SSTORE PUSH1 0x40 MLOAD DUP3 DUP2 MSTORE CALLER SWAP1 PUSH32 0xE1FFFCC4923D04B559F4D29A8BFC6CDA04EB5B0D3C460751C2402C5C5CC9109C SWAP1 PUSH1 0x20 ADD JUMPDEST PUSH1 0x40 MLOAD DUP1 SWAP2 SUB SWAP1 LOG2 POP POP PUSH1 0x1 DUP1 SSTORE JUMP JUMPDEST PUSH1 0x2 PUSH1 0x1 SLOAD EQ ISZERO PUSH2 0xDFC JUMPI PUSH1 0x40 MLOAD PUSH3 0x461BCD PUSH1 0xE5 SHL DUP2 MSTORE PUSH1 0x4 ADD PUSH2 0x3D4 SWAP1 PUSH2 0x1644 JUMP JUMPDEST PUSH1 0x2 PUSH1 0x1 SWAP1 DUP2 SSTORE CALLER PUSH1 0x0 SWAP1 DUP2 MSTORE PUSH1 0xC PUSH1 0x20 MSTORE PUSH1 0x40 DUP2 KECCAK256 DUP1 SLOAD DUP3 DUP3 SSTORE SWAP3 DUP2 ADD SWAP2 SWAP1 SWAP2 SSTORE SWAP1 DUP1 ISZERO PUSH2 0xE3C JUMPI PUSH1 0xB SLOAD PUSH2 0xE3C SWAP1 PUSH1 0x1 PUSH1 0x1 PUSH1 0xA0 SHL SUB AND CALLER DUP4 PUSH2 0x1157 JUMP JUMPDEST DUP2 SLOAD PUSH1 0x40 MLOAD SWAP1 DUP2 MSTORE CALLER SWAP1 PUSH32 0x5FAFA99D0643513820BE26656B45130B01E1C03062E1266BF36F88CBD3BD9695 SWAP1 PUSH1 0x20 ADD PUSH2 0xDC9 JUMP JUMPDEST PUSH1 0x0 SLOAD PUSH1 0x1 PUSH1 0x1 PUSH1 0xA0 SHL SUB AND CALLER EQ PUSH2 0xE9A JUMPI PUSH1 0x40 MLOAD PUSH3 0x461BCD PUSH1 0xE5 SHL DUP2 MSTORE PUSH1 0x4 ADD PUSH2 0x3D4 SWAP1 PUSH2 0x160F JUMP JUMPDEST PUSH1 0x1 PUSH1 0x1 PUSH1 0xA0 SHL SUB DUP2 AND PUSH2 0xEFF JUMPI PUSH1 0x40 MLOAD PUSH3 0x461BCD PUSH1 0xE5 SHL DUP2 MSTORE PUSH1 0x20 PUSH1 0x4 DUP3 ADD MSTORE PUSH1 0x26 PUSH1 0x24 DUP3 ADD MSTORE PUSH32 0x4F776E61626C653A206E6577206F776E657220697320746865207A65726F2061 PUSH1 0x44 DUP3 ADD MSTORE PUSH6 0x646472657373 PUSH1 0xD0 SHL PUSH1 0x64 DUP3 ADD MSTORE PUSH1 0x84 ADD PUSH2 0x3D4 JUMP JUMPDEST PUSH2 0x610 DUP2 PUSH2 0x11BF JUMP JUMPDEST PUSH1 0x1 PUSH1 0x1 PUSH1 0xA0 SHL SUB DUP2 DUP2 AND PUSH1 0x0 SWAP1 DUP2 MSTORE PUSH1 0xC PUSH1 0x20 MSTORE PUSH1 0x40 DUP1 DUP3 KECCAK256 PUSH1 0xB SLOAD SWAP2 MLOAD PUSH4 0x70A08231 PUSH1 0xE0 SHL DUP2 MSTORE ADDRESS PUSH1 0x4 DUP3 ADD MSTORE SWAP3 SWAP4 SWAP1 SWAP3 DUP5 SWAP3 SWAP1 SWAP2 AND SWAP1 PUSH4 0x70A08231 SWAP1 PUSH1 0x24 ADD PUSH1 0x20 PUSH1 0x40 MLOAD DUP1 DUP4 SUB DUP2 DUP7 GAS STATICCALL ISZERO DUP1 ISZERO PUSH2 0xF67 JUMPI RETURNDATASIZE PUSH1 0x0 DUP1 RETURNDATACOPY RETURNDATASIZE PUSH1 0x0 REVERT JUMPDEST POP POP POP POP PUSH1 0x40 MLOAD RETURNDATASIZE PUSH1 0x1F NOT PUSH1 0x1F DUP3 ADD AND DUP3 ADD DUP1 PUSH1 0x40 MSTORE POP DUP2 ADD SWAP1 PUSH2 0xF8B SWAP2 SWAP1 PUSH2 0x17A4 JUMP JUMPDEST SWAP1 POP PUSH1 0x6 SLOAD NUMBER GT DUP1 ISZERO PUSH2 0xF9D JUMPI POP DUP1 ISZERO ISZERO JUMPDEST ISZERO PUSH2 0x1024 JUMPI PUSH1 0x0 PUSH2 0xFB0 PUSH1 0x6 SLOAD NUMBER PUSH2 0x1259 JUMP JUMPDEST SWAP1 POP PUSH1 0x0 PUSH2 0xFC9 PUSH1 0x8 SLOAD DUP4 PUSH2 0x112A SWAP1 SWAP2 SWAP1 PUSH4 0xFFFFFFFF AND JUMP JUMPDEST SWAP1 POP PUSH1 0x0 PUSH2 0xFF2 PUSH2 0xFE9 DUP6 PUSH2 0x51F PUSH1 0x9 SLOAD DUP7 PUSH2 0x112A SWAP1 SWAP2 SWAP1 PUSH4 0xFFFFFFFF AND JUMP JUMPDEST PUSH1 0x3 SLOAD SWAP1 PUSH2 0x120F JUMP JUMPDEST SWAP1 POP PUSH2 0x1019 DUP6 PUSH1 0x1 ADD SLOAD PUSH2 0x525 PUSH1 0x9 SLOAD PUSH2 0x51F DUP6 DUP11 PUSH1 0x0 ADD SLOAD PUSH2 0x112A SWAP1 SWAP2 SWAP1 PUSH4 0xFFFFFFFF AND JUMP JUMPDEST SWAP8 SWAP7 POP POP POP POP POP POP POP JUMP JUMPDEST PUSH2 0x104B DUP3 PUSH1 0x1 ADD SLOAD PUSH2 0x525 PUSH1 0x9 SLOAD PUSH2 0x51F PUSH1 0x3 SLOAD DUP8 PUSH1 0x0 ADD SLOAD PUSH2 0x112A SWAP1 SWAP2 SWAP1 PUSH4 0xFFFFFFFF AND JUMP JUMPDEST SWAP5 SWAP4 POP POP POP POP JUMP JUMPDEST PUSH1 0x6 SLOAD NUMBER GT PUSH2 0x105E JUMPI JUMP JUMPDEST PUSH1 0xB SLOAD PUSH1 0x40 MLOAD PUSH4 0x70A08231 PUSH1 0xE0 SHL DUP2 MSTORE ADDRESS PUSH1 0x4 DUP3 ADD MSTORE PUSH1 0x0 SWAP2 PUSH1 0x1 PUSH1 0x1 PUSH1 0xA0 SHL SUB AND SWAP1 PUSH4 0x70A08231 SWAP1 PUSH1 0x24 ADD PUSH1 0x20 PUSH1 0x40 MLOAD DUP1 DUP4 SUB DUP2 DUP7 GAS STATICCALL ISZERO DUP1 ISZERO PUSH2 0x10A7 JUMPI RETURNDATASIZE PUSH1 0x0 DUP1 RETURNDATACOPY RETURNDATASIZE PUSH1 0x0 REVERT JUMPDEST POP POP POP POP PUSH1 0x40 MLOAD RETURNDATASIZE PUSH1 0x1F NOT PUSH1 0x1F DUP3 ADD AND DUP3 ADD DUP1 PUSH1 0x40 MSTORE POP DUP2 ADD SWAP1 PUSH2 0x10CB SWAP2 SWAP1 PUSH2 0x17A4 JUMP JUMPDEST SWAP1 POP DUP1 PUSH2 0x10D9 JUMPI POP NUMBER PUSH1 0x6 SSTORE JUMP JUMPDEST PUSH1 0x0 PUSH2 0x10E7 PUSH1 0x6 SLOAD NUMBER PUSH2 0x1259 JUMP JUMPDEST SWAP1 POP PUSH1 0x0 PUSH2 0x1100 PUSH1 0x8 SLOAD DUP4 PUSH2 0x112A SWAP1 SWAP2 SWAP1 PUSH4 0xFFFFFFFF AND JUMP JUMPDEST SWAP1 POP PUSH2 0x111E PUSH2 0xFE9 DUP5 PUSH2 0x51F PUSH1 0x9 SLOAD DUP6 PUSH2 0x112A SWAP1 SWAP2 SWAP1 PUSH4 0xFFFFFFFF AND JUMP JUMPDEST PUSH1 0x3 SSTORE POP POP NUMBER PUSH1 0x6 SSTORE POP JUMP JUMPDEST PUSH1 0x0 PUSH2 0x1136 DUP3 DUP5 PUSH2 0x17BD JUMP JUMPDEST SWAP1 POP JUMPDEST SWAP3 SWAP2 POP POP JUMP JUMPDEST PUSH1 0x0 PUSH2 0x1136 DUP3 DUP5 PUSH2 0x17DC JUMP JUMPDEST PUSH1 0x0 PUSH2 0x1136 DUP3 DUP5 PUSH2 0x17FE JUMP JUMPDEST PUSH1 0x40 MLOAD PUSH1 0x1 PUSH1 0x1 PUSH1 0xA0 SHL SUB DUP4 AND PUSH1 0x24 DUP3 ADD MSTORE PUSH1 0x44 DUP2 ADD DUP3 SWAP1 MSTORE PUSH2 0x11BA SWAP1 DUP5 SWAP1 PUSH4 0xA9059CBB PUSH1 0xE0 SHL SWAP1 PUSH1 0x64 ADD JUMPDEST PUSH1 0x40 DUP1 MLOAD PUSH1 0x1F NOT DUP2 DUP5 SUB ADD DUP2 MSTORE SWAP2 SWAP1 MSTORE PUSH1 0x20 DUP2 ADD DUP1 MLOAD PUSH1 0x1 PUSH1 0x1 PUSH1 0xE0 SHL SUB AND PUSH1 0x1 PUSH1 0x1 PUSH1 0xE0 SHL SUB NOT SWAP1 SWAP4 AND SWAP3 SWAP1 SWAP3 OR SWAP1 SWAP2 MSTORE PUSH2 0x1293 JUMP JUMPDEST POP POP POP JUMP JUMPDEST PUSH1 0x0 DUP1 SLOAD PUSH1 0x1 PUSH1 0x1 PUSH1 0xA0 SHL SUB DUP4 DUP2 AND PUSH1 0x1 PUSH1 0x1 PUSH1 0xA0 SHL SUB NOT DUP4 AND DUP2 OR DUP5 SSTORE PUSH1 0x40 MLOAD SWAP2 SWAP1 SWAP3 AND SWAP3 DUP4 SWAP2 PUSH32 0x8BE0079C531659141344CD1FD0A4F28419497F9722A3DAAFE3B4186F6B6457E0 SWAP2 SWAP1 LOG3 POP POP JUMP JUMPDEST PUSH1 0x0 PUSH2 0x1136 DUP3 DUP5 PUSH2 0x1815 JUMP JUMPDEST PUSH1 0x40 MLOAD PUSH1 0x1 PUSH1 0x1 PUSH1 0xA0 SHL SUB DUP1 DUP6 AND PUSH1 0x24 DUP4 ADD MSTORE DUP4 AND PUSH1 0x44 DUP3 ADD MSTORE PUSH1 0x64 DUP2 ADD DUP3 SWAP1 MSTORE PUSH2 0x1253 SWAP1 DUP6 SWAP1 PUSH4 0x23B872DD PUSH1 0xE0 SHL SWAP1 PUSH1 0x84 ADD PUSH2 0x1183 JUMP JUMPDEST POP POP POP POP JUMP JUMPDEST PUSH1 0x0 PUSH1 0x4 SLOAD DUP3 GT PUSH2 0x1275 JUMPI PUSH2 0x126E DUP3 DUP5 PUSH2 0x114B JUMP JUMPDEST SWAP1 POP PUSH2 0x1139 JUMP JUMPDEST PUSH1 0x4 SLOAD DUP4 LT PUSH2 0x1286 JUMPI POP PUSH1 0x0 PUSH2 0x1139 JUMP JUMPDEST PUSH1 0x4 SLOAD PUSH2 0x126E SWAP1 DUP5 PUSH2 0x114B JUMP JUMPDEST PUSH1 0x0 PUSH2 0x12E8 DUP3 PUSH1 0x40 MLOAD DUP1 PUSH1 0x40 ADD PUSH1 0x40 MSTORE DUP1 PUSH1 0x20 DUP2 MSTORE PUSH1 0x20 ADD PUSH32 0x5361666542455032303A206C6F772D6C6576656C2063616C6C206661696C6564 DUP2 MSTORE POP DUP6 PUSH1 0x1 PUSH1 0x1 PUSH1 0xA0 SHL SUB AND PUSH2 0x1365 SWAP1 SWAP3 SWAP2 SWAP1 PUSH4 0xFFFFFFFF AND JUMP JUMPDEST DUP1 MLOAD SWAP1 SWAP2 POP ISZERO PUSH2 0x11BA JUMPI DUP1 DUP1 PUSH1 0x20 ADD SWAP1 MLOAD DUP2 ADD SWAP1 PUSH2 0x1306 SWAP2 SWAP1 PUSH2 0x182D JUMP JUMPDEST PUSH2 0x11BA JUMPI PUSH1 0x40 MLOAD PUSH3 0x461BCD PUSH1 0xE5 SHL DUP2 MSTORE PUSH1 0x20 PUSH1 0x4 DUP3 ADD MSTORE PUSH1 0x2A PUSH1 0x24 DUP3 ADD MSTORE PUSH32 0x5361666542455032303A204245503230206F7065726174696F6E20646964206E PUSH1 0x44 DUP3 ADD MSTORE PUSH10 0x1BDD081CDD58D8D95959 PUSH1 0xB2 SHL PUSH1 0x64 DUP3 ADD MSTORE PUSH1 0x84 ADD PUSH2 0x3D4 JUMP JUMPDEST PUSH1 0x60 PUSH2 0x1374 DUP5 DUP5 PUSH1 0x0 DUP6 PUSH2 0x137E JUMP JUMPDEST SWAP1 POP JUMPDEST SWAP4 SWAP3 POP POP POP JUMP JUMPDEST PUSH1 0x60 DUP3 SELFBALANCE LT ISZERO PUSH2 0x13DF JUMPI PUSH1 0x40 MLOAD PUSH3 0x461BCD PUSH1 0xE5 SHL DUP2 MSTORE PUSH1 0x20 PUSH1 0x4 DUP3 ADD MSTORE PUSH1 0x26 PUSH1 0x24 DUP3 ADD MSTORE PUSH32 0x416464726573733A20696E73756666696369656E742062616C616E636520666F PUSH1 0x44 DUP3 ADD MSTORE PUSH6 0x1C8818D85B1B PUSH1 0xD2 SHL PUSH1 0x64 DUP3 ADD MSTORE PUSH1 0x84 ADD PUSH2 0x3D4 JUMP JUMPDEST PUSH1 0x1 PUSH1 0x1 PUSH1 0xA0 SHL SUB DUP6 AND EXTCODESIZE PUSH2 0x1436 JUMPI PUSH1 0x40 MLOAD PUSH3 0x461BCD PUSH1 0xE5 SHL DUP2 MSTORE PUSH1 0x20 PUSH1 0x4 DUP3 ADD MSTORE PUSH1 0x1D PUSH1 0x24 DUP3 ADD MSTORE PUSH32 0x416464726573733A2063616C6C20746F206E6F6E2D636F6E7472616374000000 PUSH1 0x44 DUP3 ADD MSTORE PUSH1 0x64 ADD PUSH2 0x3D4 JUMP JUMPDEST PUSH1 0x0 DUP1 DUP7 PUSH1 0x1 PUSH1 0x1 PUSH1 0xA0 SHL SUB AND DUP6 DUP8 PUSH1 0x40 MLOAD PUSH2 0x1452 SWAP2 SWAP1 PUSH2 0x1876 JUMP JUMPDEST PUSH1 0x0 PUSH1 0x40 MLOAD DUP1 DUP4 SUB DUP2 DUP6 DUP8 GAS CALL SWAP3 POP POP POP RETURNDATASIZE DUP1 PUSH1 0x0 DUP2 EQ PUSH2 0x148F JUMPI PUSH1 0x40 MLOAD SWAP2 POP PUSH1 0x1F NOT PUSH1 0x3F RETURNDATASIZE ADD AND DUP3 ADD PUSH1 0x40 MSTORE RETURNDATASIZE DUP3 MSTORE RETURNDATASIZE PUSH1 0x0 PUSH1 0x20 DUP5 ADD RETURNDATACOPY PUSH2 0x1494 JUMP JUMPDEST PUSH1 0x60 SWAP2 POP JUMPDEST POP SWAP2 POP SWAP2 POP PUSH2 0x1019 DUP3 DUP3 DUP7 PUSH1 0x60 DUP4 ISZERO PUSH2 0x14AE JUMPI POP DUP2 PUSH2 0x1377 JUMP JUMPDEST DUP3 MLOAD ISZERO PUSH2 0x14BE JUMPI DUP3 MLOAD DUP1 DUP5 PUSH1 0x20 ADD REVERT JUMPDEST DUP2 PUSH1 0x40 MLOAD PUSH3 0x461BCD PUSH1 0xE5 SHL DUP2 MSTORE PUSH1 0x4 ADD PUSH2 0x3D4 SWAP2 SWAP1 PUSH2 0x1892 JUMP JUMPDEST PUSH1 0x0 PUSH1 0x20 DUP3 DUP5 SUB SLT ISZERO PUSH2 0x14EA JUMPI PUSH1 0x0 DUP1 REVERT JUMPDEST POP CALLDATALOAD SWAP2 SWAP1 POP JUMP JUMPDEST PUSH1 0x1 PUSH1 0x1 PUSH1 0xA0 SHL SUB DUP2 AND DUP2 EQ PUSH2 0x610 JUMPI PUSH1 0x0 DUP1 REVERT JUMPDEST PUSH1 0x0 DUP1 PUSH1 0x40 DUP4 DUP6 SUB SLT ISZERO PUSH2 0x1519 JUMPI PUSH1 0x0 DUP1 REVERT JUMPDEST DUP3 CALLDATALOAD PUSH2 0x1524 DUP2 PUSH2 0x14F1 JUMP JUMPDEST SWAP5 PUSH1 0x20 SWAP4 SWAP1 SWAP4 ADD CALLDATALOAD SWAP4 POP POP POP JUMP JUMPDEST PUSH1 0x0 PUSH1 0x20 DUP3 DUP5 SUB SLT ISZERO PUSH2 0x1544 JUMPI PUSH1 0x0 DUP1 REVERT JUMPDEST DUP2 CALLDATALOAD PUSH2 0x1377 DUP2 PUSH2 0x14F1 JUMP JUMPDEST PUSH1 0x0 DUP1 PUSH1 0x0 DUP1 PUSH1 0x0 DUP1 PUSH1 0x0 PUSH1 0xE0 DUP9 DUP11 SUB SLT ISZERO PUSH2 0x156A JUMPI PUSH1 0x0 DUP1 REVERT JUMPDEST DUP8 CALLDATALOAD PUSH2 0x1575 DUP2 PUSH2 0x14F1 JUMP JUMPDEST SWAP7 POP PUSH1 0x20 DUP9 ADD CALLDATALOAD PUSH2 0x1585 DUP2 PUSH2 0x14F1 JUMP JUMPDEST SWAP6 POP PUSH1 0x40 DUP9 ADD CALLDATALOAD SWAP5 POP PUSH1 0x60 DUP9 ADD CALLDATALOAD SWAP4 POP PUSH1 0x80 DUP9 ADD CALLDATALOAD SWAP3 POP PUSH1 0xA0 DUP9 ADD CALLDATALOAD SWAP2 POP PUSH1 0xC0 DUP9 ADD CALLDATALOAD PUSH2 0x15B1 DUP2 PUSH2 0x14F1 JUMP JUMPDEST DUP1 SWAP2 POP POP SWAP3 SWAP6 SWAP9 SWAP2 SWAP5 SWAP8 POP SWAP3 SWAP6 POP JUMP JUMPDEST PUSH1 0x0 DUP1 PUSH1 0x40 DUP4 DUP6 SUB SLT ISZERO PUSH2 0x15D4 JUMPI PUSH1 0x0 DUP1 REVERT JUMPDEST POP POP DUP1 CALLDATALOAD SWAP3 PUSH1 0x20 SWAP1 SWAP2 ADD CALLDATALOAD SWAP2 POP JUMP JUMPDEST DUP1 ISZERO ISZERO DUP2 EQ PUSH2 0x610 JUMPI PUSH1 0x0 DUP1 REVERT JUMPDEST PUSH1 0x0 DUP1 PUSH1 0x40 DUP4 DUP6 SUB SLT ISZERO PUSH2 0x1604 JUMPI PUSH1 0x0 DUP1 REVERT JUMPDEST DUP3 CALLDATALOAD PUSH2 0x1524 DUP2 PUSH2 0x15E3 JUMP JUMPDEST PUSH1 0x20 DUP1 DUP3 MSTORE DUP2 DUP2 ADD MSTORE PUSH32 0x4F776E61626C653A2063616C6C6572206973206E6F7420746865206F776E6572 PUSH1 0x40 DUP3 ADD MSTORE PUSH1 0x60 ADD SWAP1 JUMP JUMPDEST PUSH1 0x20 DUP1 DUP3 MSTORE PUSH1 0x1F SWAP1 DUP3 ADD MSTORE PUSH32 0x5265656E7472616E637947756172643A207265656E7472616E742063616C6C00 PUSH1 0x40 DUP3 ADD MSTORE PUSH1 0x60 ADD SWAP1 JUMP JUMPDEST PUSH1 0x0 PUSH1 0x20 DUP3 DUP5 SUB SLT ISZERO PUSH2 0x168D JUMPI PUSH1 0x0 DUP1 REVERT JUMPDEST DUP2 MLOAD PUSH1 0xFF DUP2 AND DUP2 EQ PUSH2 0x1377 JUMPI PUSH1 0x0 DUP1 REVERT JUMPDEST PUSH4 0x4E487B71 PUSH1 0xE0 SHL PUSH1 0x0 MSTORE PUSH1 0x11 PUSH1 0x4 MSTORE PUSH1 0x24 PUSH1 0x0 REVERT JUMPDEST PUSH1 0x1 DUP2 DUP2 JUMPDEST DUP1 DUP6 GT ISZERO PUSH2 0x16EF JUMPI DUP2 PUSH1 0x0 NOT DIV DUP3 GT ISZERO PUSH2 0x16D5 JUMPI PUSH2 0x16D5 PUSH2 0x169E JUMP JUMPDEST DUP1 DUP6 AND ISZERO PUSH2 0x16E2 JUMPI SWAP2 DUP2 MUL SWAP2 JUMPDEST SWAP4 DUP5 SHR SWAP4 SWAP1 DUP1 MUL SWAP1 PUSH2 0x16B9 JUMP JUMPDEST POP SWAP3 POP SWAP3 SWAP1 POP JUMP JUMPDEST PUSH1 0x0 DUP3 PUSH2 0x1706 JUMPI POP PUSH1 0x1 PUSH2 0x1139 JUMP JUMPDEST DUP2 PUSH2 0x1713 JUMPI POP PUSH1 0x0 PUSH2 0x1139 JUMP JUMPDEST DUP2 PUSH1 0x1 DUP2 EQ PUSH2 0x1729 JUMPI PUSH1 0x2 DUP2 EQ PUSH2 0x1733 JUMPI PUSH2 0x174F JUMP JUMPDEST PUSH1 0x1 SWAP2 POP POP PUSH2 0x1139 JUMP JUMPDEST PUSH1 0xFF DUP5 GT ISZERO PUSH2 0x1744 JUMPI PUSH2 0x1744 PUSH2 0x169E JUMP JUMPDEST POP POP PUSH1 0x1 DUP3 SHL PUSH2 0x1139 JUMP JUMPDEST POP PUSH1 0x20 DUP4 LT PUSH2 0x133 DUP4 LT AND PUSH1 0x4E DUP5 LT PUSH1 0xB DUP5 LT AND OR ISZERO PUSH2 0x1772 JUMPI POP DUP2 DUP2 EXP PUSH2 0x1139 JUMP JUMPDEST PUSH2 0x177C DUP4 DUP4 PUSH2 0x16B4 JUMP JUMPDEST DUP1 PUSH1 0x0 NOT DIV DUP3 GT ISZERO PUSH2 0x1790 JUMPI PUSH2 0x1790 PUSH2 0x169E JUMP JUMPDEST MUL SWAP4 SWAP3 POP POP POP JUMP JUMPDEST PUSH1 0x0 PUSH2 0x1136 DUP4 DUP4 PUSH2 0x16F7 JUMP JUMPDEST PUSH1 0x0 PUSH1 0x20 DUP3 DUP5 SUB SLT ISZERO PUSH2 0x17B6 JUMPI PUSH1 0x0 DUP1 REVERT JUMPDEST POP MLOAD SWAP2 SWAP1 POP JUMP JUMPDEST PUSH1 0x0 DUP2 PUSH1 0x0 NOT DIV DUP4 GT DUP3 ISZERO ISZERO AND ISZERO PUSH2 0x17D7 JUMPI PUSH2 0x17D7 PUSH2 0x169E JUMP JUMPDEST POP MUL SWAP1 JUMP JUMPDEST PUSH1 0x0 DUP3 PUSH2 0x17F9 JUMPI PUSH4 0x4E487B71 PUSH1 0xE0 SHL PUSH1 0x0 MSTORE PUSH1 0x12 PUSH1 0x4 MSTORE PUSH1 0x24 PUSH1 0x0 REVERT JUMPDEST POP DIV SWAP1 JUMP JUMPDEST PUSH1 0x0 DUP3 DUP3 LT ISZERO PUSH2 0x1810 JUMPI PUSH2 0x1810 PUSH2 0x169E JUMP JUMPDEST POP SUB SWAP1 JUMP JUMPDEST PUSH1 0x0 DUP3 NOT DUP3 GT ISZERO PUSH2 0x1828 JUMPI PUSH2 0x1828 PUSH2 0x169E JUMP JUMPDEST POP ADD SWAP1 JUMP JUMPDEST PUSH1 0x0 PUSH1 0x20 DUP3 DUP5 SUB SLT ISZERO PUSH2 0x183F JUMPI PUSH1 0x0 DUP1 REVERT JUMPDEST DUP2 MLOAD PUSH2 0x1377 DUP2 PUSH2 0x15E3 JUMP JUMPDEST PUSH1 0x0 JUMPDEST DUP4 DUP2 LT ISZERO PUSH2 0x1865 JUMPI DUP2 DUP2 ADD MLOAD DUP4 DUP3 ADD MSTORE PUSH1 0x20 ADD PUSH2 0x184D JUMP JUMPDEST DUP4 DUP2 GT ISZERO PUSH2 0x1253 JUMPI POP POP PUSH1 0x0 SWAP2 ADD MSTORE JUMP JUMPDEST PUSH1 0x0 DUP3 MLOAD PUSH2 0x1888 DUP2 DUP5 PUSH1 0x20 DUP8 ADD PUSH2 0x184A JUMP JUMPDEST SWAP2 SWAP1 SWAP2 ADD SWAP3 SWAP2 POP POP JUMP JUMPDEST PUSH1 0x20 DUP2 MSTORE PUSH1 0x0 DUP3 MLOAD DUP1 PUSH1 0x20 DUP5 ADD MSTORE PUSH2 0x18B1 DUP2 PUSH1 0x40 DUP6 ADD PUSH1 0x20 DUP8 ADD PUSH2 0x184A JUMP JUMPDEST PUSH1 0x1F ADD PUSH1 0x1F NOT AND SWAP2 SWAP1 SWAP2 ADD PUSH1 0x40 ADD SWAP3 SWAP2 POP POP JUMP INVALID LOG2 PUSH5 0x6970667358 0x22 SLT KECCAK256 JUMP CALL 0xD2 0xE0 SUB EXTCODECOPY 0x1F 0xAA 0xF6 0xDC KECCAK256 MUL 0x2D KECCAK256 SSTORE XOR 0x25 DUP9 0xD4 0xDE TIMESTAMP JUMP DUP8 0x2C PUSH6 0x5AAFCDE7218E LOG2 PUSH5 0x736F6C6343 STOP ADDMOD SIGNEXTEND STOP CALLER LOG2 PUSH5 0x6970667358 0x22 SLT KECCAK256 0xDF 0xA8 MSTORE 0xB5 CHAINID 0xAA 0xCB 0xA6 0xF 0x2B 0xD2 PUSH9 0x89FD399ADC01542D0C PUSH10 0xDDAE34CE7BED4EA9B4A7 PUSH5 0x736F6C6343 STOP ADDMOD SIGNEXTEND STOP CALLER "
		},
		"gasEstimates": {
			"creation": {
				"codeDepositCost": "1704400",
				"executionCost": "27633",
				"totalCost": "1732033"
			},
			"external": {
				"newPool(address,address,uint256,uint256,uint256,uint256,address)": "infinite",
				"owner()": "2334",
				"pools(address)": "2591",
				"removePool(address)": "30093",
				"renounceOwnership()": "28136",
				"transferOwnership(address)": "infinite"
			},
			"internal": {
				"addPool(address)": "infinite"
			}
		},
		"methodIdentifiers": {
			"newPool(address,address,uint256,uint256,uint256,uint256,address)": "24d65ed8",
			"owner()": "8da5cb5b",
			"pools(address)": "a4063dbc",
			"removePool(address)": "3b7d0946",
			"renounceOwnership()": "715018a6",
			"transferOwnership(address)": "f2fde38b"
		}
	},
	"abi": [
		{
			"inputs": [],
			"stateMutability": "nonpayable",
			"type": "constructor"
		},
		{
			"anonymous": false,
			"inputs": [
				{
					"indexed": true,
					"internalType": "address",
					"name": "_address",
					"type": "address"
				}
			],
			"name": "AddPool",
			"type": "event"
		},
		{
			"anonymous": false,
			"inputs": [
				{
					"indexed": true,
					"internalType": "address",
					"name": "_address",
					"type": "address"
				}
			],
			"name": "NewPool",
			"type": "event"
		},
		{
			"anonymous": false,
			"inputs": [
				{
					"indexed": true,
					"internalType": "address",
					"name": "previousOwner",
					"type": "address"
				},
				{
					"indexed": true,
					"internalType": "address",
					"name": "newOwner",
					"type": "address"
				}
			],
			"name": "OwnershipTransferred",
			"type": "event"
		},
		{
			"anonymous": false,
			"inputs": [
				{
					"indexed": true,
					"internalType": "address",
					"name": "_address",
					"type": "address"
				}
			],
			"name": "RemovePool",
			"type": "event"
		},
		{
			"inputs": [
				{
					"internalType": "contract IBEP20",
					"name": "_stakedToken",
					"type": "address"
				},
				{
					"internalType": "contract IBEP20",
					"name": "_rewardToken",
					"type": "address"
				},
				{
					"internalType": "uint256",
					"name": "_rewardPerBlock",
					"type": "uint256"
				},
				{
					"internalType": "uint256",
					"name": "_startBlock",
					"type": "uint256"
				},
				{
					"internalType": "uint256",
					"name": "_bonusEndBlock",
					"type": "uint256"
				},
				{
					"internalType": "uint256",
					"name": "_poolLimitPerUser",
					"type": "uint256"
				},
				{
					"internalType": "address",
					"name": "_admin",
					"type": "address"
				}
			],
			"name": "newPool",
			"outputs": [],
			"stateMutability": "nonpayable",
			"type": "function"
		},
		{
			"inputs": [],
			"name": "owner",
			"outputs": [
				{
					"internalType": "address",
					"name": "",
					"type": "address"
				}
			],
			"stateMutability": "view",
			"type": "function"
		},
		{
			"inputs": [
				{
					"internalType": "address",
					"name": "",
					"type": "address"
				}
			],
			"name": "pools",
			"outputs": [
				{
					"internalType": "bool",
					"name": "",
					"type": "bool"
				}
			],
			"stateMutability": "view",
			"type": "function"
		},
		{
			"inputs": [
				{
					"internalType": "address",
					"name": "_address",
					"type": "address"
				}
			],
			"name": "removePool",
			"outputs": [],
			"stateMutability": "nonpayable",
			"type": "function"
		},
		{
			"inputs": [],
			"name": "renounceOwnership",
			"outputs": [],
			"stateMutability": "nonpayable",
			"type": "function"
		},
		{
			"inputs": [
				{
					"internalType": "address",
					"name": "newOwner",
					"type": "address"
				}
			],
			"name": "transferOwnership",
			"outputs": [],
			"stateMutability": "nonpayable",
			"type": "function"
		}
	]
}